:100000000C9496010C94B3010C94B3010C94650A02
:100010000C94CB0A0C94B3010C94B3010C94310BE7
:100020000C94B3010C94970B0C942C130C946A133E
:100030000C94B3010C94B3010C94B3010C94B30170
:100040000C94B3010C94B3010C94B3010C94B30160
:100050000C94B3010C94B3010C94B3010C94B71736
:100060000C94B3010C94B3010C94B3010C94B30140
:100070000C94B3010C94B3010C94B3010C94B30130
:100080000C94B3010C94B3010C94B3010C94B30120
:100090000C94B3010C94B3010C94D1090C94B301EA
:1000A0000C94B3010C94B3010C94B301A90A950A02
:1000B000BC0A950ABC0ABC0AA90AA90ABC0ABC0A5D
:1000C000950ABC0A950AA90A0F0BFB0A220BFB0A28
:1000D000220B220B0F0B0F0B220B220BFB0A220B06
:1000E000FB0A0F0B750B610B880B610B880B880BE0
:1000F000750B750B880B880B610B880B610B750BEF
:10010000E00BCC0BF30BCC0BF30BF30BE00BE00B86
:10011000F30BF30BCC0BF30BCC0BE00B6E616E000F
:10012000696E660000407A10F35A00A0724E1809FA
:100130000010A5D4E80000E87648170000E40B544E
:10014000020000CA9A3B000000E1F505000080961D
:100150009800000040420F000000A086010000004F
:10016000102700000000E803000000006400000009
:1001700000000A00000000000100000000002C76D2
:10018000D888DC674F0823DFC1DFAE59E1B1B796ED
:10019000E5E3E453C63AE651997696E8E6C284264A
:1001A000EB898C9B62ED407C6FFCEFBC9C9F40F226
:1001B000BAA56FA5F490055A2AF75C936B6CF967A2
:1001C0006DC11BFCE0E40D47FEF520E6B500D0ED67
:1001D000902E0300943577050080841E08000020CF
:1001E0004E0A000000C80C333333330F986E12836D
:1001F0001141EF8D2114893BE65516CFFEE6DB1841
:10020000D1844B381BF77C1D901DA4BBE424203205
:1002100084725E228100C9F124ECA1E53D27494D9D
:1002200055204661696C65640D0A0000010000C23A
:100230000212000200007F0243000300007B020460
:1002400001030904670212020309045F02060303A3
:10025000090455020808033400310030000000068C
:10026000034D003200000012034A002E0020004619
:1002700000690065006E00650000000403090409C0
:10028000024300020100C032090400000102020121
:1002900000052400100105240101010424020605C3
:1002A0002406000107058203100040090401000232
:1002B0000A00000007050302400000070584024011
:1002C00000001201000202000010C0167A040001B2
:1002D000010203010001C11201803601813663640D
:1002E000696E6F70737578585B6566674546470041
:1002F000616E006E66696E69747900CDCCCC3D0A82
:10030000D7233C17B7D13877CC2B329595E6241FED
:10031000B14F0A000020410000C84200401C4620A6
:10032000BCBE4CCA1B0E5AAEC59D740011241FBE24
:10033000CFEFDAE0DEBFCDBF12E0A0E0B1E0EEEA41
:10034000F9E402C005900D92A030B107D9F722E080
:10035000A0E0B2E001C01D92A03EB207E1F70E940A
:1003600004090C94D5240C9400001092C000E1EC18
:10037000F0E010821092C2001092C3001092BF00F1
:100380001092BE008CE98093CF00A2E7B0E08C9180
:1003900080648C9380818B6080830895CF93DF93FA
:1003A000CDB7DEB728970FB6F894DEBF0FBECDBF2E
:1003B0002AE032E03F932F932EE032E03F932F93D9
:1003C0009E01295F3F4F3F932F93225031093F9366
:1003D0002F93225031093F932F93225031093F939D
:1003E0002F932AE132E03F932F932EE132E03F93A7
:1003F0002F9322E031E03F932F9329E032E03F93A7
:100400002F932EE031E03F932F939F938F930E9481
:100410004224909109020FB6F894DEBF0FBECDBF03
:10042000911119C029813A81309319022093180241
:100430002B813C8130931702209316022D813E813F
:1004400030931502209314022F81388530931302C4
:100450002093120221C09130F9F429813A81232B93
:1004600009F490E09093060291E02B813C81232BCC
:1004700009F490E09093050291E02D813E81232BB9
:1004800009F490E09093040291E02F813885232BAA
:1004900009F490E09093030228960FB6F894DEBF1B
:1004A0000FBECDBFDF91CF910895CF93DF93EC01C5
:1004B00003C021960E94D81288818111FACFDF9162
:1004C000CF9108950F931F93CF93DF93CDB7DEB7EE
:1004D000C659D1090FB6F894DEBF0FBECDBF8091CB
:1004E0000D028F9380910C028F9380910B028F935A
:1004F00080910A028F93809111028F938091100254
:100500008F9380910F028F9380910E028F93809131
:1005100013028F93809112028F93809115028F9313
:10052000809114028F93809117028F93809116020D
:100530008F93809119028F93809118028F938091ED
:100540001D028F9380911C028F9380911B028F93C9
:1005500080911A028F93809121028F9380912002C3
:100560008F9380911F028F9380911E028F9380E35F
:1005700091E09F938F931F9286E98F938E010F5F77
:100580001F4F1F930F930E941224C8010E9455020F
:100590000E941C130FB6F894DEBF0FBECDBFCA5623
:1005A000DF4F0FB6F894DEBF0FBECDBFDF91CF9106
:1005B0001F910F9108954F925F926F927F92AF9229
:1005C000BF92CF92DF92EF92FF920F931F9362C27E
:1005D0000E94AB128A3019F08D3009F04FC2E091C1
:1005E0002202EE2309F456C2F0E0ED5DFD4F1082C9
:1005F00083E292E00E94CE01882309F43CC28091FC
:1006000002018250823010F40E946202809109023D
:100610008111F1C0C0901E02D0901F02E090200214
:10062000F090210220E030E0A901C701B6010E944C
:100630008818882309F466C060911A0270911B0221
:1006400080911C0290911D0220E030E0A9010E94DF
:100650008818882309F456C083E0809300020E9422
:100660001B17A0900E02B0900F02C0901002D09005
:100670001102609114027091150280E090E00E94D6
:100680002E192B013C01609118027091190280E033
:1006900090E00E942E199B01AC0160911E027091A6
:1006A0001F028091200290912102830172010E9419
:1006B0005E17A0900A02B0900B02C0900C02D0907E
:1006C0000D02609112027091130280E090E00E948E
:1006D0002E192B013C01609116027091170280E0E7
:1006E00090E00E942E199B01AC0160911A0270915A
:1006F0001B0280911C0290911D02830172010E94D5
:10070000811776C020E030E0A901C701B6010E9440
:100710008818882371F181E0809300020E941B17E2
:10072000A0900E02B0900F02C0901002D090110263
:10073000609114027091150280E090E00E942E19E1
:100740002B013C01609118027091190280E090E049
:100750000E942E199B01AC0160911E0270911F0234
:100760008091200290912102830172010E945E1704
:100770003FC060911A0270911B0280911C029091FF
:100780001D0220E030E0A9010E948818882371F141
:1007900082E0809300020E941B17A0900A02B09092
:1007A0000B02C0900C02D0900D0260911202709169
:1007B000130280E090E00E942E192B013C01609111
:1007C00016027091170280E090E00E942E199B01A2
:1007D000AC0160911A0270911B0280911C029091F1
:1007E0001D02830172010E94811702C01092000253
:1007F0001092000140C1813009F03DC120910602F4
:1008000030E0A901440F551F440F551F440F551FD9
:1008100090910502292F30E0220F331F220F331F42
:1008200090910402892F90E0880F991F242B822B2E
:1008300090910302892B80930702882331F09091D5
:100840000101933021F020E003C020E001C021E04D
:10085000922F917009F477C082E0809301010E9489
:100860001B17809106028823C1F081E0809300026B
:100870000F2EA12CB12CF8E4CF2EF3E4DF2EF02DB7
:10088000E12CF12C06E913E4A801970160E070E087
:1008900088EC93E40E945E1753C080910502882380
:1008A000C1F081E0809300020F2EA12CB12CF8E45E
:1008B000CF2EF3E4DF2EF02DE12CF12C06E913E42A
:1008C000A801970160E070E088EC93EC0E945E174D
:1008D00037C0809104028823C1F082E08093000237
:1008E0000F2EA12CB12CF0EFCF2EF1E4DF2EF02D46
:1008F000E12CF12C08E412E4A801970160E070E01B
:1009000084E392E40E9481171BC080910302882334
:10091000B9F082E0809300020F2EA12CB12CF0EFF1
:10092000CF2EF1E4DF2EF02DE12CF12C08E412E4BF
:10093000A801970160E070E084E392EC0E948117C7
:100940001092000194C090910802891709F47BC0AD
:1009500020910101213009F476C0233009F473C0DD
:1009600081E0809301010E9433178091080283FF88
:1009700017C081E0809300020F2EA12CB12CF8E467
:10098000CF2EF3E4DF2EF02DE12CF12C870120E0B7
:1009900030E046E953E4C601B5010E945E1750C03D
:1009A00082FF19C081E0809300020F2EA12CB12C90
:1009B000F8E4CF2EF3E4DF2EF02DE12CF12C8701AB
:1009C00020E030E046E953E460E070E088E493EC36
:1009D0000E945E1735C081FF19C082E0809300023B
:1009E0000F2EA12CB12CF0EFCF2EF1E4DF2EF02D45
:1009F000E12CF12C870120E030E048E452E460E093
:100A000070E084EB91E40E9481171AC080FF18C047
:100A100082E0809300020F2EA12CB12CF0EFCF2E9C
:100A2000F1E4DF2EF02DE12CF12C870120E030E005
:100A300048E452E460E070E084EB91EC0E9481179E
:100A40001092000114C0891312C08091010181111C
:100A50000EC080910001882351F00E9447176B015E
:100A60007C010E943E17A70196010E94FB11809114
:100A7000070280930802109222020CC0E091220229
:100A8000EF3340F491E09E0F90932202F0E0ED5D91
:100A9000FD4F80830E94C91281119ACD1F910F9141
:100AA000FF90EF90DF90CF90BF90AF907F906F90CE
:100AB0005F904F9008952F923F924F925F926F9266
:100AC0007F928F929F92AF92BF92CF92DF92EF92DE
:100AD000FF920F931F93CF93DF93CDB7DEB7C85824
:100AE000D1090FB6F894DEBF0FBECDBF0E942F0E06
:100AF000CF57DF4F6883C158D040CE57DF4F788340
:100B0000C258D040CD57DF4F8883C358D040CC5710
:100B1000DF4F9883C458D0400E94620ECB57DF4FFE
:100B20006883C558D040CA57DF4F7883C658D04035
:100B3000C957DF4F8883C758D040C857DF4F9883C5
:100B4000C858D0400E94950E162F072FF82EE92E78
:100B50000E94B40ED62EC72EB82EA92E0E94D30EF8
:100B6000962E872E782E692E0E94DC0E562E472E4A
:100B7000382E292E0E94E50E0E942E199F938F93E6
:100B80007F936F932F923F924F925F926F927F92DB
:100B90008F929F92AF92BF92CF92DF92EF92FF928D
:100BA0000F931F93C857DF4F8881C858D0408F9349
:100BB000C957DF4F9881C758D0409F93CA57DF4F1E
:100BC0008881C658D0408F93CB57DF4F9881C55846
:100BD000D0409F93CC57DF4F8881C458D0408F932B
:100BE000CD57DF4F9881C358D0409F93CE57DF4FEA
:100BF0008881C258D0408F93CF57DF4F9881C1581A
:100C0000D0409F938FE691E09F938F931F9280E84F
:100C10008F938E010F5F1F4F1F930F930E9412241B
:100C20000FB6F894DEBF0FBECDBFC8010E945502BB
:100C30000E941C13C857DF4F0FB6F894DEBF0FBEDB
:100C4000CDBFDF91CF911F910F91FF90EF90DF907B
:100C5000CF90BF90AF909F908F907F906F905F905C
:100C60004F903F902F9008952F923F924F925F9216
:100C70006F927F928F929F92AF92BF92CF92DF92AC
:100C8000EF92FF920F931F93CF93DF93CDB7DEB711
:100C9000CA5ED1090FB6F894DEBF0FBECDBFC953EF
:100CA000DF4F8883C75CD040C853DF4F6883C85C80
:100CB000D040AE0147545F4FBE0169547F4FCE0113
:100CC0008B549F4F0E944F10AE0141545F4FBE01A5
:100CD00063547F4FCE0185549F4F0E949210AE0106
:100CE0004B535F4FBE016D537F4FCE018F539F4FCC
:100CF0000E94D510CB54DF4F68817981C55BD0400D
:100D0000072E000C880B990B0E94301920E030E070
:100D100040E85DE30E94E519C753DF4F6883C95C73
:100D2000D040C653DF4F7883CA5CD040C553DF4FF5
:100D30008883CB5CD040C453DF4F9883CC5CD040D9
:100D4000C954DF4F68817981C75BD040072E000C02
:100D5000880B990B0E94301920E030E040E85DE3F9
:100D60000E94E519C353DF4F6883CD5CD040C25366
:100D7000DF4F7883CE5CD040C153DF4F8883CF5C98
:100D8000D040C053DF4F9883C05DD040C754DF4F81
:100D900068817981C95BD040072E000C880B990BC4
:100DA0000E94301920E030E040E85DE30E94E51940
:100DB000CF52DF4F6883C15DD040CE52DF4F788382
:100DC000C25DD040CD52DF4F8883C35DD040CC524E
:100DD000DF4F9883C45DD040C554DF4F688179816F
:100DE000CB5BD040072E000C880B990B0E9430196A
:100DF00020E030E040E85DE30E94E519CB52DF4F90
:100E00006883C55DD040CA52DF4F7883C65DD0404D
:100E1000C952DF4F8883C75DD040C852DF4F9883E7
:100E2000C85DD040C354DF4F68817981CD5BD0402D
:100E3000072E000C880B990B0E94301920E030E03F
:100E400040E85DE30E94E519C752DF4F6883C95D42
:100E5000D040C652DF4F7883CA5DD040C552DF4FC5
:100E60008883CB5DD040C452DF4F9883CC5DD040A7
:100E7000C154DF4F68817981CF5BD040072E000CD1
:100E8000880B990B0E94301920E030E040E85DE3C8
:100E90000E94E519C352DF4F6883CD5DD040C25236
:100EA000DF4F7883CE5DD040C152DF4F8883CF5D66
:100EB000D040C052DF4F9883C05ED040CF53DF4F49
:100EC00068817981C15CD040072E000C880B990B9A
:100ED0000E94301920E030E048EC52E40E948D1866
:100EE000CF51DF4F6883C15ED040CE51DF4F788352
:100EF000C25ED040CD51DF4F8883C35ED040CC511D
:100F0000DF4F9883C45ED040CD53DF4F6881798135
:100F1000C35CD040072E000C880B990B0E9430193F
:100F200020E030E048EC52E40E948D18CB51DF4FB6
:100F30006883C55ED040CA51DF4F7883C65ED0401B
:100F4000C951DF4F8883C75ED040C851DF4F9883B7
:100F5000C85ED040CB53DF4F68817981C55CD040FB
:100F6000072E000C880B990B0E94301920E030E00E
:100F700048EC52E40E948D18C751DF4F6883C95E68
:100F8000D040C651DF4F7883CA5ED040182F092F5A
:100F90000E94390AB82EA92E0E94490A982E892E3D
:100FA0000E94590A782E692E0E945D0A582E492EF9
:100FB0000E94610A382E292E0E94020CF62EE72E7E
:100FC000D82EC92E0E940D0C1F92C853DF4F2881C6
:100FD000C85CD0402F931F92C953DF4F2881C75C54
:100FE000D0402F932F923F924F925F926F927F92B9
:100FF0008F929F92AF92BF929F938F937F936F93A5
:10100000CF92DF92EF92FF920F931F93C651DF4F63
:101010008881CA5ED0408F93C751DF4F9881C95EE7
:10102000D0409F93C851DF4F2881C85ED0402F9396
:10103000C951DF4F8881C75ED0408F93CA51DF4FBF
:101040009881C65ED0409F93CB51DF4F2881C55E0B
:10105000D0402F93CC51DF4F8881C45ED0408F9316
:10106000CD51DF4F9881C35ED0409F93CE51DF4F6B
:101070002881C25ED0402F93CF51DF4F8881C15E5F
:10108000D0408F93C052DF4F9881C05ED0409F9375
:10109000C152DF4F2881CF5DD0402F93C252DF4F26
:1010A0008881CE5DD0408F93C352DF4F9881CD5D54
:1010B000D0409F93C452DF4F2881CC5DD0402F9306
:1010C000C552DF4F8881CB5DD0408F93C652DF4F32
:1010D0009881CA5DD0409F93C752DF4F2881C95D78
:1010E000D0402F93C852DF4F8881C85DD0408F9386
:1010F000C952DF4F9881C75DD0409F93CA52DF4FDE
:101100002881C65DD0402F93CB52DF4F8881C55DCB
:10111000D0408F93CC52DF4F9881C45DD0409F93D5
:10112000CD52DF4F2881C35DD0402F93CE52DF4F89
:101130008881C25DD0408F93CF52DF4F9881C15DCF
:10114000D0409F93C053DF4F2881C05DD0402F9384
:10115000C153DF4F8881CF5CD0408F93C253DF4FA4
:101160009881CE5CD0409F93C353DF4F2881CD5CE4
:10117000D0402F93C453DF4F8881CC5CD0408F93F5
:10118000C553DF4F9881CB5CD0409F93C653DF4F50
:101190002881CA5CD0402F93C753DF4F8881C95C38
:1011A000D0408F9381EA91E09F938F931F9284EBBD
:1011B0008F938E010F5F1F4F1F930F930E94122476
:1011C0000FB6F894DEBF0FBECDBFC8010E94550216
:1011D0000E941C13C651DF4F0FB6F894DEBF0FBE3E
:1011E000CDBFDF91CF911F910F91FF90EF90DF90D6
:1011F000CF90BF90AF909F908F907F906F905F90B7
:101200004F903F902F9008952FEF81EE94E0215062
:1012100080409040E1F700C000000E9492120E94BE
:10122000AE170E9435110E94860C0E94E4090E94AC
:101230001A0F2FEF81EE94E0215080409040E1F7AB
:1012400000C000000E94F40F2FEF81EE94E02150C7
:1012500080409040E1F700C000000E940D10811115
:1012600004C08EE192E00E94DB140E94B5017894E4
:101270000E941B170E94180C8093010280910202A9
:101280008823C1F3109202020E94DB020E94F80C34
:101290000E94A51780910102811172C080910902FC
:1012A00081113FC080910002833081F40E94571762
:1012B000882361F00E945017882341F081E08093D9
:1012C00000010E941B17109200025CC08091000276
:1012D000813061F40E945017882341F081E08093AF
:1012E00000010E941B17109200024CC08091000266
:1012F000823061F40E945717882341F081E0809387
:1013000000010E941B17109200023CC00E94471768
:101310006B017C010E943E17A70196010E94FB1100
:1013200031C0813079F580910002813021F40E9432
:101330005017811108C0809100028230B1F40E94E0
:101340005717882391F081E080930001809101017B
:10135000823019F41092010115C0813099F483E0B4
:10136000809301010E941B170DC00E9447176B015B
:101370007C010E943E17A70196010E94FB1102C04A
:101380000E94841280910201813011F0833011F4A7
:101390000E945B0560910001809101020E94340669
:1013A00069CF1F920F920FB60F9211248F93109254
:1013B000BF001092BE0081E0809302028F910F90D7
:1013C0000FBE0F901F901895ECE7F0E080E480834B
:1013D0008081807F8083EBE7F0E080818F7D808358
:1013E00087E880937A0083E780937E0008958830B1
:1013F00080F4ECE7F0E09081907F892B8083EBE72D
:10140000F0E080818F7D808320E040E050E0BA01F1
:1014100023C0ECE7F0E09081907F8850892B808397
:10142000EBE7F0E080818062808320E040E050E0E4
:10143000BA0112C0EAE7F0E0908190649083909145
:101440007A0096FDFCCF8091780090917900480F4A
:10145000591F611D711D2F5F243060F3DB01CA012C
:10146000B695A79597958795B695A79597958795DE
:10147000089580E00E94F7099C01ACE4B4E00E946A
:1014800005222FEF33E040E050E00E94DD21C9014A
:10149000089581E00E94F7099C01ACE4B4E00E9449
:1014A00005222FEF33E040E050E00E94DD21C9012A
:1014B000089584E00E94F709089585E00E94F709E5
:1014C000089586E00E94F70908951F920F920FB6C3
:1014D0000F9211242F933F938F939F93AF93BF93BA
:1014E000EF93FF9339B129B123FB222720F932FB77
:1014F000882780F990E0880F991F282B80918D0212
:1015000090E0880F991F880F991FE22FE82B8E2FEC
:10151000EE0F990BAA0BBB0BFC013197EE30F105D6
:1015200058F5EA5AFF4F0C94FF2180919202909156
:101530009302A0919402B09195020197A109B1097B
:101540008093920290939302A0939402B093950299
:1015500013C08091920290919302A0919402B09155
:1015600095020196A11DB11D809392029093930262
:10157000A0939402B093950220938D02FF91EF9176
:10158000BF91AF919F918F913F912F910F900FBE7F
:101590000F901F9018951F920F920FB60F92112463
:1015A0002F933F938F939F93AF93BF93EF93FF93AB
:1015B00039B129B123FB222720F932FB882780F992
:1015C00090E0880F991F282B80918D0290E0880F62
:1015D000991F880F991FE22FE82B8E2FEE0F990B82
:1015E000AA0BBB0BFC013197EE30F10558F5EC5915
:1015F000FF4F0C94FF218091920290919302A09151
:101600009402B09195020197A109B10980939202C9
:1016100090939302A0939402B093950213C080918B
:10162000920290919302A0919402B091950201963A
:10163000A11DB11D8093920290939302A0939402F6
:10164000B093950220938D02FF91EF91BF91AF91DE
:101650009F918F913F912F910F900FBE0F901F90F0
:1016600018951F920F920FB60F9211242F933F934C
:101670008F939F93AF93BF93EF93FF9333B12CB1AD
:1016800026FB222720F934FB882780F990E0880F79
:10169000991F282B80918C0290E0880F991F880F4A
:1016A000991FE22FE82B8E2FEE0F990BAA0BBB0B85
:1016B000FC013197EE30F10558F5EE58FF4F0C94D0
:1016C000FF2180918E0290918F02A0919002B091A3
:1016D00091020197A109B10980938E0290938F0224
:1016E000A0939002B093910213C080918E029091CA
:1016F0008F02A0919002B09191020196A11DB11D9F
:1017000080938E0290938F02A0939002B0939102E7
:1017100020938C02FF91EF91BF91AF919F918F9198
:101720003F912F910F900FBE0F901F9018951F9211
:101730000F920FB60F9211242F933F938F939F9385
:10174000AF93BF93EF93FF931F9903C021E02093C2
:10175000630233B12CB126FB222720F934FB882702
:1017600080F990E0880F991F282B80918C0290E0DF
:10177000880F991F880F991FE22FE82B8E2FEE0FED
:10178000990BAA0BBB0BFC013197EE30F10558F514
:10179000E058FF4F0C94FF2180918E0290918F02B0
:1017A000A0919002B09191020197A109B109809393
:1017B0008E0290938F02A0939002B093910213C077
:1017C00080918E0290918F02A0919002B09191022F
:1017D0000196A11DB11D80938E0290938F02A0935C
:1017E0009002B093910220938C02FF91EF91BF91F0
:1017F000AF919F918F913F912F910F900FBE0F90BE
:101800001F901895F89460919202709193028091C4
:1018100094029091950278940895F89460918E02C4
:1018200070918F0280919002909191027894089526
:10183000F8948091630278940895CF93CFB7F89489
:1018400081E05FC010929202109293021092940273
:1018500010929502109288021092890210928A02C8
:1018600010928B0210928E0210928F0210929002B0
:1018700010929102109284021092850210928602B8
:1018800010928702109274021092750210927602E2
:1018900010927702109278021092790210927A02D6
:1018A00010927B0210926C0210926D0210926E02E6
:1018B00010926F02109270021092710210927202D6
:1018C000109273020E94F61720936402309365020F
:1018D00040936602509367026093680270936902B6
:1018E00080936A0290936B0281E090E0A0E0B0E008
:1018F0008093030190930401A0930501B093060126
:1019000080E081119FCFCFBFCF9108958AB18B7FA7
:101910008AB98AB1877F8AB98BB184608BB98BB160
:1019200088608BB9E9E6F0E0808180618083808106
:101930008F7D80838DB384608DBB80818064808344
:1019400080818F7780838DB388608DBB4A9B02C076
:1019500022E001C020E099B193FB882780F9822B17
:1019600080938D028DB18F7B8DB98EB180648EB9DD
:1019700084B18F7E84B984B18F7784B985B1806159
:1019800085B985B1806885B9EAE6F0E0808180613B
:10199000808380818F7D80838DB380648DBBE8E6FA
:1019A000F0E0808181608083EBE6F0E080818069F7
:1019B00080831C9B02C022E001C020E09CB196FB0A
:1019C000882780F9822B80938C0210928E021092CD
:1019D0008F02109290021092910210929202109235
:1019E000930210929402109295020E941D0C089589
:1019F0004F925F926F927F928F929F92AF92BF921F
:101A0000CF92DF92EF92FF92CF93DF93CDB7DEB705
:101A100028970FB6F894DEBF0FBECDBF0E94F61711
:101A200029833A834B835C836D837E838F8398877E
:101A30008091640290916502A0916602B091670264
:101A400029813A814B815C81281B390B4A0B5B0B46
:101A50002093030130930401409305015093060144
:101A6000232B242B252B61F481E090E0A0E0B0E053
:101A70008093030190930401A0930501B0930601A4
:101A80003981309364024A81409365025B815093AF
:101A900066028C81809367022D81209368023E81CB
:101AA000309369024F8140936A02588550936B02CC
:101AB0009FB7F89481E011C08090920290909302B9
:101AC000A0909402B0909502C0908E02D0908F02A8
:101AD000E0909002F090910280E08111EDCF9FBFE5
:101AE0008091880290918902A0918A02B0918B0224
:101AF000A5019401281B390B4A0B5B0BCA01B901E4
:101B0000209380023093810240938202509383029B
:101B10004090840250908502609086027090870207
:101B2000A7019601241935094609570929013A01E7
:101B300020937C0230937D0240937E0250937F027B
:101B40008092880290928902A0928A02B0928B02BF
:101B5000C0928402D0928502E0928602F0928702BF
:101B60000E9430192DEF3DEA40E85CE30E94E51940
:101B70006B017C01C301B2010E9430192DEF3DEAD7
:101B800040E85CE30E94E5192B013C019B01AC019C
:101B9000C701B6010E941C1820E030E040E05FE37E
:101BA0000E94E5194B015C01609378027093790201
:101BB00080937A0290937B02A7019601C301B20140
:101BC0000E941B182AEF3EEA4AEE5DE30E94E519E7
:101BD0006B017C01609374027093750280937602AE
:101BE00090937702A5019401609170027091710247
:101BF00080917202909173020E941C18609370028F
:101C0000709371028093720290937302A701960100
:101C100060916C0270916D0280916E0290916F02E2
:101C20000E941C1860936C0270936D0280936E0288
:101C300090936F0228960FB6F894DEBF0FBECDBF0B
:101C4000DF91CF91FF90EF90DF90CF90BF90AF905A
:101C50009F908F907F906F905F904F900895CF925C
:101C6000DF92EF92FF9260918002709181028091E9
:101C70008202909183020E9430192DEF3DEA40E8E4
:101C80005CE30E94E5196B017C0160910301709196
:101C9000040180910501909106010E942E199B017B
:101CA000AC0160E074E284E799E40E948D189B0126
:101CB000AC01C701B6010E94E519FF90EF90DF90DB
:101CC000CF900895CF92DF92EF92FF9260917C02C5
:101CD00070917D0280917E0290917F020E94301966
:101CE0002DEF3DEA40E85CE30E94E5196B017C01C1
:101CF00060910301709104018091050190910601AA
:101D00000E942E199B01AC0160E074E284E799E423
:101D10000E948D189B01AC01C701B6010E94E51914
:101D2000FF90EF90DF90CF90089560910301709144
:101D3000040180910501909106010E942E199B01DA
:101D4000AC0160E074E284E799E40E948D189B0185
:101D5000AC01609178027091790280917A02909141
:101D60007B020E94E51908956091030170910401BE
:101D700080910501909106010E942E199B01AC01F2
:101D800060E074E284E799E40E948D189B01AC0145
:101D90006091740270917502809176029091770241
:101DA0000E94E5190895609170027091710280910E
:101DB000720290917302089560916C0270916D02AD
:101DC00080916E0290916F0208956091030170916D
:101DD00004018091050190910601089594EA909381
:101DE000BC009091BC009923E4F79091B900987FD2
:101DF000983011F09031C1F48093BB0084E8809357
:101E0000BC008091BC008823E4F78091B900887FF2
:101E1000883121F0803421F491E003C091E001C0C9
:101E200090E0892F8170089580E0089584E980937F
:101E3000BC000895E9EBF0E080818C7F808388E42A
:101E40008093B80084E08093BC0008950F931F93A3
:101E5000CF93DF93EB01142F880F0E94EE0E082F13
:101E6000811119C01DC0FE01E90FF11D8081809311
:101E7000BB0084E88093BC008091BC008823E4F719
:101E80008091B900887F883221F00E94160F00E00F
:101E900007C09F5F01C090E0911728F30E94160FC2
:101EA000802FDF91CF911F910F9108950F931F9372
:101EB000CF93DF938B01C42F90E0880F991F81602F
:101EC0000E94EE0ED82F81112FC033C0492F50E051
:101ED0002C2F30E0215031094217530711F484E8C8
:101EE00001C084EC8093BC008091BC008823E4F79F
:101EF000421753072CF48091B900887F803541F454
:101F00004217530749F48091B900887F883521F042
:101F10000E94160FD0E00DC0F801E90FF11D80916D
:101F2000BB0080839F5F01C090E09C1778F20E9405
:101F3000160F8D2FDF91CF911F910F910895CF93A1
:101F4000DF9300D0CDB7DEB789836A8342E0BE015C
:101F50006F5F7F4F88E20E94260F0F900F90DF91F6
:101F6000CF910895682F8DE30E949F0F08950F93DE
:101F70001F93CF93DF931F92CDB7DEB789838B0179
:101F800041E0BE016F5F7F4F88E20E94260F8823E9
:101F900029F041E0B80188E20E94560F0F90DF91CE
:101FA000CF911F910F910895FF920F931F93CF939D
:101FB000DF931F92CDB7DEB789838B01F42E41E00A
:101FC000BE016F5F7F4F88E20E94260F882329F0B1
:101FD0004F2DB80188E20E94560F0F90DF91CF91EC
:101FE0001F910F91FF90089580B3806880BB81B3EB
:101FF0008F7781BB8FE39CE90197F1F700C0000068
:1020000081B3806881BB9FEF2CEB8FE19150204022
:102010008040E1F700C0000008951F93CF93DF9345
:102020001F92CDB7DEB70E941A0F1982BE016F5FF3
:102030007F4F80E00E94B70F182F882351F18981CC
:10204000803A31F580E00E94B20F2FE788E391E0FB
:10205000215080409040E1F700C0000060E28FE333
:102060000E949F0F2FEF8CEB9FE12150804090400A
:10207000E1F700C000008CE00E94B20F2FEF89EF63
:1020800090E0215080409040E1F700C0000001C086
:1020900010E0812F0F90DF91CF911F910895CF9283
:1020A000DF92EF92FF920F931F93CF93DF9300D0B5
:1020B00000D000D0CDB7DEB76C017B018A0146E0CD
:1020C000BE016F5F7F4F8AE10E94D40F8823D9F051
:1020D00029818A8190E0982F8827822BF6019183AD
:1020E00080832B818C8190E0982F8827822BF701A9
:1020F000918380832D818E8190E0982F8827822B79
:10210000F8019183808326960FB6F894DEBF0FBE48
:10211000CDBFDF91CF911F910F91FF90EF90DF9096
:10212000CF900895CF92DF92EF92FF920F931F937B
:10213000CF93DF9300D000D000D0CDB7DEB76C01D5
:102140007B018A0146E0BE016F5F7F4F84E10E9400
:10215000D40F8823D9F029818A8190E0982F88278D
:10216000822BF601918380832B818C8190E0982FC4
:102170008827822BF701918380832D818E8190E0C7
:10218000982F8827822BF8019183808326960FB69B
:10219000F894DEBF0FBECDBFDF91CF911F910F919D
:1021A000FF90EF90DF90CF900895CF92DF92EF9263
:1021B000FF920F931F93CF93DF9300D000D000D0F6
:1021C000CDB7DEB76C017B018A0146E0BE016F5FCF
:1021D0007F4F88E20E94D40F8823D9F029818A8119
:1021E00090E0982F8827822BF601918380832B81A2
:1021F0008C8190E0982F8827822BF7019183808330
:102200002D818E8190E0982F8827822BF801918371
:10221000808326960FB6F894DEBF0FBECDBFDF9148
:10222000CF911F910F91FF90EF90DF90CF90089585
:10223000882321F085B1806485B9089585B18F7BAD
:1022400085B90895882321F08BB180688BB90895F2
:102250008BB18F778BB90895CF93C82F0E94181137
:102260008C2F0E942211CF91089587B1806487B985
:102270008AB180648AB984B1806484B984B180628F
:1022800084B98AB180618AB98AB180688AB988B113
:10229000806488B98BB180648BB985B18F7B85B937
:1022A00085B1806285B98BB180618BB98BB18F7735
:1022B0008BB990E49093900088E080939100909384
:1022C00080008093810081E00E942C110895882372
:1022D00021F08BB180648BB908958BB18F7B8BB962
:1022E0000895882321F08BB180618BB908958BB15B
:1022F0008F7E8BB908959C01A0EDB7E00E94052266
:102300000E942E1923E634E14DE154E40E948D1819
:102310000E94FF189B01AC01012E1BE0220F331F0E
:10232000441F551F1A95D1F7102D60E074E284EF19
:1023300090E00E94DD21DA01C9010197A109B109EC
:10234000009721E0A207B10520F08FEF9FEFA0E0FA
:10235000B0E09093990080939800E1E9F0E08081EB
:10236000887F808310929500109294008081856010
:10237000808308959C01A0EDB7E00E9405220E9491
:102380002E1923E634E14DE154E40E948D180E9499
:10239000FF189B01AC01012E1BE0220F331F441FCD
:1023A000551F1A95D1F7102D60E074E284EF90E08C
:1023B0000E94DD21DA01C9010197A109B1099093B9
:1023C000890080938800E1E8F0E08081887F808345
:1023D000109285001092840080818560808308952A
:1023E000CF93DF93EB010E947B11CE010E94BA11C3
:1023F000DF91CF9108954F925F926F927F928F926B
:102400009F92AF92BF92CF92DF92EF92FF92CF93C3
:10241000DF9300D000D01F92CDB7DEB72B013C0177
:10242000CA01B90120E030E04AEF53E40E94E51907
:102430002BED3FE049E450E40E94E51920E030E054
:1024400044EB53E40E948D186B017C019B01AC01AD
:10245000C301B2010E941B184B015C01A301920150
:10246000C701B6010E941C186B017C01D501C40193
:10247000BF7789839A83AB83BC8326013701E894B5
:1024800077F891E09D8320E030E0A901C501B40117
:102490000E94E01988230CF41D828D810E9467112F
:1024A000A1E0AD8320E030E0A901C701B6010E94A0
:1024B000881888230CF01D828D810E947111C30140
:1024C000B2010E94FF186B017C0169817A818B81C6
:1024D0009C810E94FF18DC01CB01B6010E94F01123
:1024E0000F900F900F900F900F90DF91CF91FF9072
:1024F000EF90DF90CF90BF90AF909F908F907F90A4
:102500006F905F904F90089580E00E942C11E1E859
:10251000F0E08081887F8083E1E9F0E08081887F3E
:102520008083089581E08093D70080EA8093D8006B
:1025300082E189BD09B400FEFDCF80E98093D80017
:102540001092E00010929902109296028CE0809313
:10255000E200789408959FB7F894809199028111D0
:1025600003C09FBF8FEF089583E08093E9008091BF
:10257000E80085FD03C09FBF8FEF08958091F100B3
:102580002091E80025FD03C02BE62093E8009FBFC3
:1025900008959FB7F89480919902882331F083E0E1
:1025A0008093E9008091F20001C080E09FBF089510
:1025B000909199029923E1F19FB7F89424E0209338
:1025C000E90020919702222349F02091E80025FD9F
:1025D00003C09FBF8FEF0895109297023091E400DF
:1025E000375E2091E80025FD14C09FBF9091E40064
:1025F000391305C081E0809397028FEF0895909181
:1026000099029923B9F09FB7F89424E02093E90048
:10261000E8CF8093F1008091E80085FD03C08AE354
:102620008093E80085E0809398029FBF80E0089542
:102630008FEF08958FEF08958FB7F89490919802D7
:10264000992341F094E09093E9009AE39093E80095
:10265000109298028FBF08951F920F920FB60F929B
:1026600011248F939F93EF93FF93E1EEF0E080812D
:10267000108283FF11C01092E90091E09093EB006B
:102680001092EC0092E19093ED0098E09093F000AE
:10269000109299021092960282FF13C080919902C3
:1026A000882379F080919802882359F08150809393
:1026B0009802811106C084E08093E9008AE3809348
:1026C000E800FF91EF919F918F910F900FBE0F90B7
:1026D0001F9018951F920F920FB60F9211242F93EF
:1026E0003F934F935F936F937F938F939F93AF939A
:1026F000BF93CF93DF93EF93FF931092E900809104
:10270000E80083FF42C1E1EFF0E0B081A0812081C9
:10271000808190E0982F8827822B4081208130E0B3
:10272000322F2227B901642B4081208130E0322FE3
:102730002227F901E42BAF0122EF2093E800A63015
:1027400009F051C0A0E02BE232E0A63020F081E297
:102750008093EB001DC1F901C591D4918C179D07A1
:1027600019F0295F3F4F1CC0F9013296C591D491F1
:102770006C177D0719F0295F3F4F12C0F90134969D
:1027800085919491F901369664919A014F3F5105D4
:1027900019F010F02FEF30E0621720F0622F02C026
:1027A000AF5FD3CF2091E800322F3570D9F322FDEF
:1027B000EFC0362F613108F030E1232F09C0AC01A2
:1027C0004F5F5F4FFC0184918093F1002150CA015B
:1027D0002111F5CF631B2EEF2093E8006111E2CFAA
:1027E000303101F3D5C0A53059F42EEF2093E80025
:1027F0002091E80020FFFCCF80688093E300C8C0F0
:10280000A93079F5B1112DC08093990210929602EA
:10281000109298028EEF8093E80081E024ED32E080
:1028200018C08093E900A9014F5F5F4FF9019491AF
:102830009093EB00992359F0FA0144914093EC00F6
:102840003196E4912D5F3F4FE093ED0001C09A0176
:102850008F5F853030F3EAEEF0E08EE18083108206
:1028600097C0A83071F4B03861F48091E80080FF1F
:10287000FCCF809199028093F1008EEF8093E80065
:1028800087C0A132A9F4B13A99F48091E80080FFA1
:10289000FCCFE7E0F1E080E005C090819093F1008B
:1028A0008F5F31968730C8F38EEF8093E80070C059
:1028B000A032C1F4B132B1F48091E80082FFFCCFC4
:1028C000E7E0F1E080E005C09091F10090838F5F38
:1028D00031968730C8F3E8EEF0E08BEF80838EEF1F
:1028E000808356C0A23261F4B13251F480939602D3
:1028F0008091E80080FFFCCF8EEF8093E80048C015
:10290000A1111BC08091E80080FFFCCFB23861F4B8
:102910006093E9008091EB0085FD02C080E001C07A
:1029200081E01092E90001C080E0E1EFF0E08083F7
:1029300010828EEF8093E8002BC0A13011F0A330FD
:1029400021F5B23011F5892B01F5262F2F778FEF66
:10295000820F8430D0F48EEF8093E8002093E9005A
:10296000A33021F481E28093EB0012C089E18093CF
:10297000EB0081E090E002C0880F991F2A95E2F7F2
:10298000EAEEF0E08083108203C081E28093EB00E6
:10299000FF91EF91DF91CF91BF91AF919F918F9177
:1029A0007F916F915F914F913F912F910F900FBE4B
:1029B0000F901F9018950F931F93CF93FC018F01D9
:1029C0000F5F1F4FC491CC2351F0CA3019F48DE032
:1029D0000E94D8128C2F0E94D812F801F0CFCF910C
:1029E0001F910F910895CF92DF92EF92FF92CF93B4
:1029F000DF93EC0169817A818B819C8129813A8105
:102A00004B815C810E94E5196B017C016F89788D97
:102A1000898D9A8D9B01AC010E94E5199B01AC0147
:102A2000C701B6010E941B189F7720E030E040E00C
:102A30005FE30E94E5192F85388949895A890E94E8
:102A4000E519DF91CF91FF90EF90DF90CF9008953F
:102A5000FC01F89415821682178210861182128268
:102A600013821482138A148A158A168A1082789423
:102A700008952F923F924F925F926F927F928F9222
:102A80009F92AF92BF92CF92DF92EF92FF920F93FD
:102A90001F93CF93DF9300D000D0CDB7DEB71C01DA
:102AA0002A013B0109831A832B833C8320E030E019
:102AB000A901C301B2010E948818882314F41FEFF2
:102AC00001C011E0F101118720E030E0A901C3014C
:102AD000B2010E948818882324F477FA709477F85A
:102AE000709420E030E040E85FE3C301B2010E944F
:102AF0008818882324F483E0F10180835CC0298155
:102B00003A814B815C81C701B6010E94E019181619
:102B100024F4C980DA80EB80FC80F10115821682F2
:102B200017821086438E548E658E768E612F110F1C
:102B3000770B880B990B0E9430192B013C012981DE
:102B40003A814B815C815F770E94E519F101638BCB
:102B5000748B858B968BA70196015F77C301B201B9
:102B60000E94E519F101678B708F818F928FE89435
:102B7000B7F883869486A586B68620E030E040E8E4
:102B80005FE3C501B4010E94E01988234CF0A50160
:102B9000940160E070E080E89FE30E948D1804C01B
:102BA00060E070E080E89FE3F1016787708B818BC4
:102BB000928B81E080830F900F900F900F90DF91A8
:102BC000CF911F910F91FF90EF90DF90CF90BF902A
:102BD000AF909F908F907F906F905F904F903F90BD
:102BE0002F9008954F925F926F927F928F929F9253
:102BF000AF92BF92CF92DF92EF92FF920F931F930B
:102C0000CF93DF9300D000D000D0CDB7DEB7FC016A
:102C10002081222309F4F8C09E838D830E94E50E53
:102C20000E942E192DEB37E346E855E30E94E51983
:102C30006B017C01ED81FE816385748585859685B8
:102C4000A70196010E94E51969837A838B839C838F
:102C5000ED81FE81838D948DA58DB68DBC01CD0156
:102C60009F770581168127813085A90198015F77BB
:102C70000E941B184B015C01ED81FE818081813037
:102C800029F5CF010E94F3149B01AC01C501B401E9
:102C90000E9488188823D4F482E0ED81FE8180832D
:102CA0004788508C618C728C20E030E0A901C30110
:102CB000B2010E948818811103C0412C512C3201AD
:102CC000ED81FE81438A548A658A768AED81FE8190
:102CD0006181728183819481438854886588768874
:102CE000A30192010E94881888231CF5ED81FE81C2
:102CF000218132814381548169817A818B819C81D8
:102D00000E941C18ED81FE8161837283838394830A
:102D10002181328143815481C301B2010E9488180C
:102D20008823ACF5ED81FE814182528263827482F8
:102D30002EC0ED81FE812181328143815481C30106
:102D4000B2010E948818882314F5ED81FE8161810B
:102D500072818381948129813A814B815C810E94B7
:102D60001B18ED81FE8161837283838394832181AB
:102D7000328143815481C301B2010E94E0191816C7
:102D800034F4ED81FE814182528263827482ED814E
:102D9000FE818285811105C00E94950E9B01AC01C8
:102DA00004C00E94B40E9B01AC01ED81FE81458000
:102DB000568067807084C701B6010E94E5199B01A7
:102DC000AC01C301B2010E941C18ED81FE81658334
:102DD00076838783908780818330B1F020E030E074
:102DE00040E05EE3C501B4010E948818882364F4C2
:102DF00083E0ED81FE8180838789908DA18DB28DE6
:102E0000838B948BA58BB68B26960FB6F894DEBF7A
:102E10000FBECDBFDF91CF911F910F91FF90EF902B
:102E2000DF90CF90BF90AF909F908F907F906F90EA
:102E30005F904F9008950E9484120E941D0C82EAB8
:102E400092E00E94281581EC92E00E94281581E012
:102E50000E942C110895F894FC01158216821782A5
:102E60001086789408950E941D0C82EA92E00E94D8
:102E70002B1781EC92E00E942B1708956091A3021A
:102E80007091A4028091A5029091A602089560918C
:102E9000C2027091C3028091C4029091C50208954C
:102EA0009091A20281E0933009F080E00895909122
:102EB000C10281E0933009F080E008958F929F92E3
:102EC000AF92BF92CF92DF92EF92FF920F931F9338
:102ED000450156011092AC026701780189019A01FF
:102EE000AB01BC0182EA92E00E9439151F910F915B
:102EF000FF90EF90DF90CF90BF90AF909F908F901A
:102F000008958F929F92AF92BF92CF92DF92EF92ED
:102F1000FF920F931F9345015601E1E0E093CB022E
:102F20006701780189019A01AB01BC0181EC92E053
:102F30000E9439151F910F91FF90EF90DF90CF9075
:102F4000BF90AF909F908F90089582EA92E00E9488
:102F5000F21581EC92E00E94F2150895F89414BCE9
:102F600082E085BD81E080936E00789408951F9281
:102F70000F920FB60F9211242F933F934F935F93AD
:102F80006F937F938F939F93AF9320919A02309189
:102F90009B0240919C0250919D0260919E02709113
:102FA0009F028091A0029091A102A1E00E94822242
:102FB00020939A0230939B0240939C0250939D026F
:102FC00060939E0270939F028093A0029093A1024F
:102FD000AF919F918F917F916F915F914F913F91B1
:102FE0002F910F900FBE0F901F9018950F93FFB762
:102FF000F89420919A0230919B0240919C0250914A
:103000009D0260919E0270919F028091A00290911A
:10301000A102E6B5A89B05C0EF3F19F0A1E00E9410
:103020008222FFBF08E00E944B222E2B01E00E946B
:1030300066220F9108955058BB27AA270E94331883
:103040000C94A6190E94981938F00E949F1920F03C
:1030500039F49F3F19F426F40C9495190EF4E09579
:10306000E7FB0C948F19E92F0E94B71958F3BA1790
:10307000620773078407950720F079F4A6F50C948E
:10308000D9190EF4E0950B2EBA2FA02D0B01B90122
:1030900090010C01CA01A0011124FF27591B99F0CE
:1030A000593F50F4503E68F11A16F040A22F232FDA
:1030B000342F4427585FF3CF469537952795A7952A
:1030C000F0405395C9F77EF41F16BA0B620B730BD1
:1030D000840BBAF09150A1F0FF0FBB1F661F771F42
:1030E000881FC2F70EC0BA0F621F731F841F48F4F7
:1030F000879577956795B795F7959E3F08F0B0CF80
:103100009395880F08F09927EE0F97958795089566
:103110000E946B1908F481E008950E94A1180C9494
:10312000A6190E949F1958F00E94981940F029F49E
:103130005F3F29F00C948F1951110C94DA190C94FB
:1031400095190E94B71968F39923B1F3552391F3A8
:10315000951B550BBB27AA2762177307840738F006
:103160009F5F5F4F220F331F441FAA1FA9F335D063
:103170000E2E3AF0E0E832D091505040E695001C17
:10318000CAF72BD0FE2F29D0660F771F881FBB1FD1
:10319000261737074807AB07B0E809F0BB0B802DAF
:1031A000BF01FF2793585F4F3AF09E3F510578F0DB
:1031B0000C948F190C94DA195F3FE4F3983ED4F322
:1031C000869577956795B795F7959F5FC9F7880FAF
:1031D000911D9695879597F90895E1E0660F771F01
:1031E000881FBB1F621773078407BA0720F0621B92
:1031F000730B840BBA0BEE1F88F7E09508950E94BD
:10320000BF1988F09F5798F0B92F9927B751B0F0A0
:10321000E1F0660F771F881F991F1AF0BA95C9F75A
:1032200014C0B13091F00E94D919B1E008950C9406
:10323000D919672F782F8827B85F39F0B93FCCF3B9
:10324000869577956795B395D9F73EF490958095D7
:10325000709561957F4F8F4F9F4F0895E89409C0F7
:1032600097FB3EF490958095709561957F4F8F4FB9
:103270009F4F9923A9F0F92F96E9BB279395F695CF
:10328000879577956795B795F111F8CFFAF4BB0F4D
:1032900011F460FF1BC06F5F7F4F8F4F9F4F16C0B1
:1032A000882311F096E911C0772321F09EE8872F3B
:1032B000762F05C0662371F096E8862F70E060E0F7
:1032C0002AF09A95660F771F881FDAF7880F969570
:1032D000879597F90895990F0008550FAA0BE0E814
:1032E000FEEF16161706E807F907C0F012161306C8
:1032F000E407F50798F0621B730B840B950B39F408
:103300000A2661F0232B242B252B21F408950A266D
:1033100009F4A140A6958FEF811D811D089597F9AD
:103320009F6780E870E060E008959FEF80EC08956B
:1033300000240A9416161706180609060895002494
:103340000A9412161306140605060895092E03940E
:10335000000C11F4882352F0BB0F40F4BF2B11F482
:1033600060FF04C06F5F7F4F8F4F9F4F089557FDE1
:103370009058440F551F59F05F3F71F04795880FE3
:1033800097FB991F61F09F3F79F08795089512167A
:1033900013061406551FF2CF4695F1DF08C0161626
:1033A00017061806991FF1CF8695710561050894D7
:1033B0000895E894BB2766277727CB0197F90895EE
:1033C0000E946B1908F48FEF08950E94F8190C946D
:1033D000A6190E94981938F00E949F1920F0952391
:1033E00011F00C948F190C94951911240C94DA197E
:1033F0000E94B71970F3959FC1F3950F50E0551FC8
:10340000629FF001729FBB27F00DB11D639FAA2739
:10341000F00DB11DAA1F649F6627B00DA11D661F88
:10342000829F2227B00DA11D621F739FB00DA11DA9
:10343000621F839FA00D611D221F749F3327A00D63
:10344000611D231F849F600D211D822F762F6A2FFF
:1034500011249F5750409AF0F1F088234AF0EE0F64
:10346000FF1FBB1F661F771F881F91505040A9F791
:103470009E3F510580F00C948F190C94DA195F3F30
:10348000E4F3983ED4F3869577956795B795F795CD
:10349000E7959F5FC1F7FE2B880F911D9695879545
:1034A00097F90895A0E1B0E0E8E5FAE10C94142260
:1034B0007C011B016A01FC0117821682838181FF56
:1034C00044C39E012F5F3F4F3901F7019381F10102
:1034D00093FD859193FF81911F01882309F431C3E6
:1034E000853239F493FD859193FF81911F018532D7
:1034F00039F4B70190E00E94D62356016501E5CF6B
:1035000010E0512C912CFFE1F915D8F08B3279F0B5
:1035100038F4803279F08332A1F4F92DF0612EC0B5
:103520008D3261F0803369F4292D21602DC0392D51
:103530003260932E892D8460982E2AC0E92DE86090
:1035400015C097FC2DC020ED280F2A3088F496FE78
:1035500006C03AE0139F200D1124122F19C08AE0F3
:10356000589E200D1124522EE92DE0629E2E10C08F
:103570008E3231F496FCE5C2F92DF0649F2E08C01E
:103580008C3621F4292D2068922E02C0883641F411
:10359000F10193FD859193FF81911F018111B3CFBB
:1035A0009BEB980F933020F4992D9061805E07C0BB
:1035B0009BE9980F933008F066C1992D9F7E96FF86
:1035C00016E09F73992E853619F49064992E08C0E1
:1035D000863621F4392F3068932E02C01111115014
:1035E00097FE07C01C3350F444244394410E27E057
:1035F0000BC0183038F027E017E005C027E09CE347
:10360000492E02C0212F412C560184E0A80EB11C86
:10361000F6016081718182819381042DA3010E9452
:103620008E226C01F981FC87F0FF02C0F3FF06C017
:1036300091FC06C092FE06C000E205C00DE203C088
:103640000BE201C000E08C858C7019F001115AC2A8
:103650009BC297FE10C04C0CFC85F4FF04C08A810D
:10366000813309F44A94141474F528E0241578F58C
:1036700088E0482E2CC096FC2AC0812F90E08C1543
:103680009D059CF03CEFC3163FEFD30674F0892DE7
:103690008068982E0AC0E2E0F0E0EC0FFD1FE10F19
:1036A000F11D8081803319F411501111F4CF97FE70
:1036B0000EC044244394410E812F90E0C816D906D1
:1036C0002CF41C1904C04424439401C010E097FE5C
:1036D00006C01C141D0434F4C601019605C085E023
:1036E00090E002C081E090E001110196112331F0D9
:1036F000212F30E02F5F3F4F820F931F252D30E0A9
:103700008217930714F4581A01C0512C892D89701F
:1037100049F4552039F0B70180E290E00E94D623A9
:103720005A94F7CF002329F0B701802F90E00E9430
:10373000D62393FC09C0552039F0B70180E390E00F
:103740000E94D6235A94F7CF97FE4CC04601D7FE6D
:1037500002C0812C912CC60188199909F301E80F48
:10376000F91FFE87ED87960124193109388B2F87C1
:10377000012F10E01195019511093FEF8316930673
:1037800029F4B7018EE290E00E94D623C814D90430
:103790004CF08F8598898815990524F4ED85FE8570
:1037A000818101C080E3F1E08F1A91082D853E856B
:1037B0002F5F3F4F3E872D87801691062CF0B70173
:1037C00090E00E94D623D9CFC814D90441F49A813D
:1037D000963320F4953319F43C8534FF81E3B70127
:1037E00090E04EC08A81813319F09C859F7E9C8732
:1037F000B70190E00E94D623111105C094FC18C0B7
:1038000085E690E017C0B7018EE290E00E94D623D3
:103810001E5F82E001E0080FF301E80FF11D8081D7
:10382000B70190E00E94D623802F0113F3CFE6CF9B
:1038300085E490E0B7010E94D623D7FC06C0C114EE
:10384000D10441F4EC85E4FF05C0D194C194D108C2
:103850008DE201C08BE2B70190E00E94D62380E3A5
:103860002AE0C216D1042CF08F5FFAE0CF1AD108FB
:10387000F7CFB70190E00E94D623B701C601C096EA
:103880000E94D62354C1833631F0833779F08335D3
:1038900009F056C020C0560132E0A30EB11CF6015B
:1038A0008081898301E010E0630112C05601F2E0DB
:1038B000AF0EB11CF601C080D18096FE03C0612F0F
:1038C00070E002C06FEF7FEFC6010E948D238C0174
:1038D000F92DFF7714C0560122E0A20EB11CF601AB
:1038E000C080D18096FE03C0612F70E002C06FEFF0
:1038F0007FEFC6010E9482238C01F92DF0689F2E74
:10390000F3FD1AC0852D90E008171907A8F4B70138
:1039100080E290E00E94D6235A94F4CFF60197FCFF
:10392000859197FE81916F01B70190E00E94D623A7
:1039300051105A94015011090115110579F7F7C07A
:10394000843611F0893661F5560197FE09C024E0EE
:10395000A20EB11CF60160817181828193810AC03F
:10396000F2E0AF0EB11CF60160817181072E000CF0
:10397000880B990BF92DFF769F2E97FF09C0909524
:103980008095709561957F4F8F4F9F4FF0689F2E68
:103990002AE030E0A3010E947424C82EC6183FC05C
:1039A000092D853721F40F7E2AE030E01DC0097F04
:1039B0008F3691F018F4883559F0C3C0803719F06C
:1039C000883711F0BEC0006104FF09C0046007C061
:1039D00094FE08C0066006C028E030E005C020E183
:1039E00030E002C020E132E0560107FF09C084E068
:1039F000A80EB11CF601608171818281938108C09B
:103A0000F2E0AF0EB11CF6016081718180E090E0C0
:103A1000A3010E947424C82EC6180F77902E96FE1C
:103A20000BC0092D0E7FC11650F494FE0AC092FC03
:103A300008C0092D0E7E05C0DC2C092D03C0DC2C2E
:103A400001C0D12E04FF0DC0FE01EC0DF11D8081DF
:103A5000803311F4097E09C002FF06C0D394D394C9
:103A600004C0802F867809F0D39403FD11C000FFB5
:103A700006C01C2DD51480F4150D1D190DC0D514CC
:103A800058F4B70180E290E00E94D623D394F7CF98
:103A9000D51410F45D1801C0512C04FF10C0B701FB
:103AA00080E390E00E94D62302FF17C001FD03C00F
:103AB00088E790E002C088E590E0B7010CC0802F55
:103AC000867859F001FF02C08BE201C080E207FD59
:103AD0008DE2B70190E00E94D623C11638F4B701F9
:103AE00080E390E00E94D6231150F7CFCA94F301EF
:103AF000EC0DF11D8081B70190E00E94D623C1102A
:103B0000F5CF15C0F4E0F51560F584E0581A93FE82
:103B10001FC0011127C02C8523FF2AC00CE111E032
:103B2000392D3071932EF8018491811124C05520D4
:103B300009F4E4CCB70180E290E00E94D6235A94C5
:103B4000F6CFF7018681978126C08FEF9FEF23C0C4
:103B5000B70180E290E00E94D6235A945110F8CF2A
:103B6000D8CF512CB701802F90E00E94D623D3CF1D
:103B700000E211E0D5CF91108052B70190E00E9491
:103B8000D6230F5F1F4FCFCF23E0251510F483E01E
:103B9000BDCF512CC0CF6096E2E10C94302220FDC5
:103BA00009C0FC0123FD05C022FF02C073836283AC
:103BB00051834083089544FD17C046FD17C0AB01F3
:103BC000BC01DA01FB01AA0FBB1FEE1FFF1F1094FF
:103BD000D1F74A0F5B1F6E1F7F1FCB01BA01660F23
:103BE000771F881F991F09C033E001C034E0660FBA
:103BF000771F881F991F3150D1F7620F711D811DEA
:103C0000911D08950F931F93CF93DF938C01C801EB
:103C10000E949823EC0197FD08C00E946623892B1F
:103C2000B1F7B801CE010E945B24CE01DF91CF91A4
:103C30001F910F910895A0E0B0E0E1E2FEE10C9445
:103C40001A227C018B016A01D22F0E9498239C01C9
:103C500033272B32310521F02D32310559F4D0684C
:103C60000150110911F480E06BC0C7010E94982334
:103C700097FDF9CFCD2FCD7F2D2F207319F58033F0
:103C800009F5580181E0A81AB10809F445C0C70137
:103C90000E94982397FD40C09C012F7D3327283533
:103CA000310551F4C26402501109B1F1C7010E94FB
:103CB000982397FF07C030C0D6FF02C0C26001C082
:103CC000C2618501812C912C540120ED280F2830F0
:103CD00080F0C4FF04C0B7010E945B241AC02A30E0
:103CE00040F0C6FFF8CF2F7D3FEE320F363098F709
:103CF00027504C2FC501B4010E94DB1D4B015C0114
:103D0000C2600150110959F0C7010E94982397FF22
:103D1000DCCFC1FD04C0A7CF812C912C5401C7FF7B
:103D200008C0B094A09490948094811C911CA11C14
:103D3000B11C2C2FB501A401C6010E94CF1D81E04A
:103D4000CDB7DEB7ECE00C943622A0E2B0E0EBEAAF
:103D5000FEE10C9416225C014B017A018E010F5F8B
:103D60001F4F680180E2F80111928A95E9F7F50189
:103D7000538040E050E0612C90E0712CA1E0B0E075
:103D8000F90153FC859153FE81918F01482E9F01CB
:103D9000811103C080E090E096C08E3519F4411582
:103DA000510551F1672D70E0641775073CF48D35AE
:103DB00061F18D3219F4992311F103C0992309F4AB
:103DC0006DC0842D869586958695F601E80FF11DC8
:103DD000842D87708D0102C0000F111F8A95E2F7B4
:103DE000C8019081892B8083641459F0461410F423
:103DF0004394E7CF4A94E5CF7724739403C091E0CE
:103E000001C090E04F5F5F4FBBCF992319F08E81C7
:103E100080628E83711003C07724739419C0F601F9
:103E20009E012F5D3F4F8081809581932E173F0724
:103E3000D1F7F2CFE114F10431F0F7018083B7013B
:103E40006F5F7F4F7B0171E0871A9108712CF9F049
:103E5000C5010E94982397FD18C0FC01FF2723E0AD
:103E6000F595E7952A95E1F7EC0DFD1D208130E0F1
:103E7000AC014770552702C0359527954A95E2F762
:103E800020FDD8CFB5010E945B24711083CFE114CF
:103E9000F10411F0F7011082C80115C0682F669572
:103EA00066956695F601E60FF11D682F67708D0126
:103EB00002C0000F111F6A95E2F7B8017081672BED
:103EC0006083682E9FCFA096E0E10C9432222F925F
:103ED0003F924F925F926F927F929F92AF92BF926A
:103EE000CF92DF92EF92FF920F931F93CF93DF93C6
:103EF0006C018B011A010E949823EC0199278B32E7
:103F0000910529F08D9781F430E8932E01C0912C12
:103F10000150110911F480E00CC1C6010E949823E0
:103F2000EC0197FF02C0F7CF912CCE010E946F23C6
:103F30008936910531F08E36910599F5C0EFD2E0C2
:103F400002C0C3EFD2E02196FE013197B490BB20AE
:103F5000C9F00150110991F0C6010E9498237C011B
:103F600097FD0CC00E946F239927EB2DF0E08E1770
:103F70009F0749F3B601C7010E945B24C65FD24088
:103F800051F603C0C35FD24029F080E090E0A0E882
:103F9000BFE704C080E090E0A0ECBFE7BC01CD012A
:103FA000B8C0412C512C3201E12CF12C2C2F205384
:103FB0002A3010F5E92DE260BE2E892D887092FE20
:103FC00006C0811120C0FFEFEF1AFF0A1CC0882332
:103FD00019F081E0E81AF10840E2C301B2010E9441
:103FE000DB1D2B013C01683979498949994158F019
:103FF000F92DF660BF2E07C02E3F89F493FC0FC049
:10400000292D2860B22E0150110941F0C6010E94ED
:104010009823EC019B2C97FFC9CF01C09B2C91FEEC
:104020007ACFCE018F7D99278534910509F042C062
:10403000580181E0A81AB10809F46DCFC6010E94A9
:104040009823EC0197FD67CF99278B32910529F0D2
:104050008D9769F4E92DE0619E2E5801F2E0AF1AC8
:10406000B10809F458CFC6010E949823EC01CE0193
:10407000C0970A9708F04FCF8501A12CB12CB5014C
:10408000BB0C880B990B2C2F205340E20E94DB1DA8
:104090005B010150110939F0C6010E949823EC011F
:1040A000C0970A9760F394FE03C0B194A194B1083D
:1040B000EA0CFB1C012B31F0D7FD04C0B601CE0188
:1040C0000E945B24C301B2010E942E19F7FE06C0B4
:1040D000F194E194F108CFE0D3E002C0C7E2D3E06D
:1040E0006E0128E1C21AD10800E210E0E016F106E4
:1040F00050F0FE0125913591459154910E94E519AA
:10410000E01AF10AF3CF249716950795CC16DD0631
:1041100069F797FE05C0DC01CB01B058BC01CD01A9
:104120002114310429F0F101608371838283938328
:1041300081E0DF91CF911F910F91FF90EF90DF9081
:10414000CF90BF90AF909F907F906F905F904F9077
:104150003F902F900895A0E0B0E0E1EBF0E20C94E6
:1041600018225C01EB014A01FC0117821682612CC6
:10417000F5010381FE0103FD859103FF8191182F55
:10418000EF01882309F40FC190E00E946623892B78
:1041900021F0C5010E94021EEBCF153241F4FE0151
:1041A00003FD159103FF1191EF01153281F4C50153
:1041B0000E94982397FDF5C0412F50E09C013327C2
:1041C00024173507A9F2B5010E945B24ECC01A320E
:1041D00041F403FD159103FF1191EF0177247394CE
:1041E00001C0712CE12CF12C20ED210F2A3088F434
:1041F000F72DF2607F2EB70180E090E040E20E9450
:10420000DB1D7B01FE0103FD159103FF1191EF0101
:10421000EBCF71FE04C0E114F10421F4C4C0EE241C
:10422000EA94FE2C183619F01C3661F014C0FE0119
:1042300003FD159103FF1191EF01183661F4872DED
:104240008860782E972D9460792EFE0103FD1591DC
:1042500003FF1191EF01112309F4A5C0612F70E054
:104260008EED92E00E947723892B09F49CC070FCAC
:1042700007C0F401C080D180C40102964C0102C085
:10428000C12CD12C1E3651F4F5014681578160E0D6
:1042900070E0272DC6010E94CF1D6ACF1336B9F4F6
:1042A00071FC03C0EE24E394F12CC5010E94982315
:1042B00097FD77C0C114D10429F0F6018083C601AF
:1042C00001966C0191E0E91AF10879F766C01B3597
:1042D00059F49E01A601B701C5010E94A51EEC017B
:1042E000892B09F05AC054C0C5010E94021E97FDD7
:1042F00058C01F36E1F140F41436A9F11936D1F156
:10430000183509F03EC02BC01337A9F018F4103748
:1043100031F137C0153739F1183709F132C0C114FE
:10432000D10429F0F6010083C60101966C0191E0E9
:10433000E91AF10871F0C5010E9498238C0197FDDC
:1043400008C00E946623892B51F3B501C8010E9461
:104350005B24C114D10409F1F60110821EC0F72DAF
:10436000F0647F2E07C0872D8062782E03C0972DC2
:104370009061792E272DA601B701C5010E941B1E51
:1043800005C0A601B701C5010E94671F811105C0C4
:10439000F5018381807329F406C070FCE9CE639433
:1043A000E7CE662019F0862D90E002C08FEF9FEFD8
:1043B000CDB7DEB7EEE00C943422A1E21A2EAA1B90
:1043C000BB1BFD010DC0AA1FBB1FEE1FFF1FA217C5
:1043D000B307E407F50720F0A21BB30BE40BF50BC2
:1043E000661F771F881F991F1A9469F7609570954B
:1043F000809590959B01AC01BD01CF010895EE0F12
:10440000FF1F0590F491E02D0994A29FB001B39F86
:10441000C001A39F700D811D1124911DB29F700DCD
:10442000811D1124911D08952F923F924F925F920A
:104430006F927F928F929F92AF92BF92CF92DF92B4
:10444000EF92FF920F931F93CF93DF93CDB7DEB719
:10445000CA1BDB0B0FB6F894DEBF0FBECDBF0994AD
:104460002A88398848885F846E847D848C849B8404
:10447000AA84B984C884DF80EE80FD800C811B8112
:10448000AA81B981CE0FD11D0FB6F894DEBF0FBE41
:10449000CDBFED0108950F93083090F0982F872F2E
:1044A000762F652F542F432F322F22270850F4CF19
:1044B000220F331F441F551F661F771F881F991F28
:1044C0000A95B2F70F91089597FB10F8169400081B
:1044D0000F93083098F00850232F342F452F562F74
:1044E000672F782F892F902DF4CF05949795879576
:1044F0007795679557954795379527950A95AAF724
:104500000F9108950024A7FD00942A0F301D401D2F
:10451000501D601D701D801D901D0895283008F0ED
:1045200027E03327DA01990F311D87FD916000964E
:104530006105710539F432602E5F3D9330E32A95B1
:10454000E1F708959F3F30F080387105610509F06B
:104550003C5F3C5F3D93913008F08068911DDF9394
:10456000CF931F930F93FF92EF92192F987F9695F9
:10457000E92F96959695E90FFF27E258FE4F992768
:104580003327EE24FF24A701E70105900894079440
:1045900028F4360FE71EF81E491F511D660F771FBE
:1045A000881F991F0694A1F70590079428F4E70E39
:1045B000F81E491F561FC11D770F881F991F661FC0
:1045C0000694A1F70590079428F4F80E491F561F8A
:1045D000C71FD11D880F991F661F771F0694A1F76B
:1045E0000590079420F4490F561FC71FD81F990F35
:1045F000661F771F881F0694A9F78491109517707E
:1046000041F0D695C79557954795F794E7941A9535
:10461000C1F7E4E2F1E06894159015913591659148
:10462000959105907FE27395E118F10A430B560BC3
:10463000C90BD009C0F7E10CF11E431F561FC91F5B
:10464000D01D7EF4703311F48A95E6CFE8940150C2
:1046500030F0080F0AF40027021708F4202F2395E2
:10466000022F7A3328F079E37D932A95E9F710C079
:104670007D932A9589F606949795679537951795B2
:104680001794E118F10A430B560BC90BD00998F0A7
:1046900023957E9173957A3308F070E37C93201311
:1046A000B8F77E9170617D9330F0839571E37D93CF
:1046B00070E32A95E1F71124EF90FF900F911F917D
:1046C000CF91DF91992787FD9095089591110C94D2
:1046D000D224803219F089508550C8F7089591117D
:1046E000089581548A5108F4805E855A0895FC012A
:1046F0000590061621F00020D9F7C00108953197E2
:10470000CF010895FC010590615070400110D8F769
:10471000809590958E0F9F1F0895FC016150704009
:1047200001900110D8F7809590958E0F9F1F0895E6
:10473000CF93DF93EC012B8120FF33C026FF0AC00B
:104740002F7B2B838E819F8101969F838E838A810D
:1047500090E029C022FF0FC0E881F9818081082EF6
:10476000000C990B009719F420622B831AC0319624
:10477000F983E8830EC0EA85FB85099597FF09C098
:104780002B81019611F080E201C080E1822B8B83A6
:1047900008C02E813F812F5F3F4F3F832E83992793
:1047A00002C08FEF9FEFDF91CF9108950F931F937A
:1047B000CF93DF93FB01238121FD03C08FEF9FEF98
:1047C0002CC022FF16C046815781248135814217B3
:1047D000530744F4A081B1819D012F5F3F4F318386
:1047E00020838C93268137812F5F3F4F3783268329
:1047F00014C08B01EC01FB010084F185E02D0995CB
:10480000892BE1F6D80116968D919C911797019608
:1048100017969C938E931697CE01DF91CF911F919F
:104820000F910895AEE0B0E0E8E1F4E20C942222AA
:104830000D891E898F89988D26E02C831A83098320
:1048400097FF02C080E090E801979E838D83AE01C0
:10485000455E5F4F698D7A8DCE0101960E94521A96
:104860004D815E8157FD0AC02F813885421753075D
:104870000CF49A01F801E20FF31F10822E96E4E087
:104880000C943E22AEE0B0E0E8E4F4E20C94242282
:1048900085E08C838B899C899A838983AE01495EEC
:1048A0005F4F6D897E89CE0101960E94AB202E96C6
:1048B000E2E00C944022FB01238120FF12C026FD80
:1048C00010C08F3F3FEF930761F082832F7D2064FC
:1048D0002383268137812150310937832683992705
:1048E00008958FEF9FEF0895FA01AA27283051F11C
:1048F000203181F1E8946F936E7F6E5F7F4F8F4F11
:104900009F4FAF4FB1E03ED0B4E03CD0670F781F6F
:10491000891F9A1FA11D680F791F8A1F911DA11D54
:104920006A0F711D811D911DA11D20D009F468948D
:104930003F912AE0269F11243019305D3193DEF635
:10494000CF010895462F4770405D4193B3E00FD0EB
:10495000C9F7F6CF462F4F70405D4A3318F0495DD6
:1049600031FD4052419302D0A9F7EACFB4E0A695B9
:104970009795879577956795BA95C9F700976105DB
:10498000710508959B01AC010A2E06945795479531
:1049900037952795BA95C9F7620F731F841F951F26
:0E49A000A01D0895992788270895F894FFCF49
:1049AE000103010100000000E1000000000825687D
:1049BE0068752C256868752C25662C25662C257542
:1049CE002C25752C25752C25752C25662C25660019
:1049DE00434D4420643D256720613D256720766D5B
:1049EE0061783D257520776D61783D25752076655A
:1049FE006E643D25752077656E643D257520616377
:104A0E00633D256720616163633D25670D0A0025BF
:104A1E002B362E316620252B362E316620252B3651
:104A2E002E316620252B352E316620252B382E3142
:104A3E006620252B372E31662025372E3166202015
:104A4E000025332E32662025332E32662025332E56
:104A5E00326620252B332E326620252B332E3266DE
:104A6E0020252B332E326620252B332E3266202521
:104A7E002B332E326620252B332E326620253130F5
:104A8E006C64202531306C64202575202575202519
:104A9E00752025752025752025752025750D0A0094
:00000001FF
