:100000000C9496010C94B3010C94B3010C94370634
:100010000C949D060C94B3010C94B3010C9403074B
:100020000C94B3010C9469070C94870D0C94C50DC6
:100030000C94B3010C94B3010C94B3010C94B30170
:100040000C94B3010C94B3010C94B3010C94B30160
:100050000C94B3010C94B3010C94B3010C941212E0
:100060000C94B3010C94B3010C94B3010C94B30140
:100070000C94B3010C94B3010C94B3010C94B30130
:100080000C94B3010C94B3010C94B3010C94B30120
:100090000C94B3010C94B3010C9411060C94B301AD
:1000A0000C94B3010C94B3010C94B3017B06670666
:1000B0008E0667068E068E067B067B068E068E06ED
:1000C00067068E0667067B06E106CD06F406CD06BA
:1000D000F406F406E106E106F406F406CD06F4069D
:1000E000CD06E106470733075A0733075A075A0771
:1000F000470747075A075A0733075A07330747077F
:10010000B2079E07C5079E07C507C507B207B20716
:10011000C507C5079E07C5079E07B2076E616E003B
:10012000696E660000407A10F35A00A0724E1809FA
:100130000010A5D4E80000E87648170000E40B544E
:10014000020000CA9A3B000000E1F505000080961D
:100150009800000040420F000000A086010000004F
:10016000102700000000E803000000006400000009
:1001700000000A00000000000100000000002C76D2
:10018000D888DC674F0823DFC1DFAE59E1B1B796ED
:10019000E5E3E453C63AE651997696E8E6C284264A
:1001A000EB898C9B62ED407C6FFCEFBC9C9F40F226
:1001B000BAA56FA5F490055A2AF75C936B6CF967A2
:1001C0006DC11BFCE0E40D47FEF520E6B500D0ED67
:1001D000902E0300943577050080841E08000020CF
:1001E0004E0A000000C80C333333330F986E12836D
:1001F0001141EF8D2114893BE65516CFFEE6DB1841
:10020000D1844B381BF77C1D901DA4BBE424203205
:1002100084725E228100C9F124ECA1E53D27494D9D
:1002200055204661696C65640D0A0000010000C23A
:100230000212000200007F0243000300007B020460
:1002400001030904670212020309045F02060303A3
:10025000090455020808033400310030000000068C
:10026000034D003200000012034A002E0020004619
:1002700000690065006E00650000000403090409C0
:10028000024300020100C032090400000102020121
:1002900000052400100105240101010424020605C3
:1002A0002406000107058203100040090401000232
:1002B0000A00000007050302400000070584024011
:1002C00000001201000202000010C0167A040001B2
:1002D000010203010001C11201803601813663640D
:1002E000696E6F70737578585B6566674546470041
:1002F000616E006E66696E69747900CDCCCC3D0A82
:10030000D7233C17B7D13877CC2B329595E6241FED
:10031000B14F0A000020410000C84200401C4620A6
:10032000BCBE4CCA1B0E5AAEC59D740011241FBE24
:10033000CFEFDAE0DEBFCDBF11E0A0E0B1E0E4E650
:10034000FEE302C005900D92A037B107D9F722E075
:10035000A0E7B1E001C01D92AF34B207E1F70E94FF
:1003600050050C94301F0C9400001092C000E1EC7A
:10037000F0E010821092C2001092C3001092BF00F1
:100380001092BE008CE98093CF00A2E7B0E08C9180
:1003900080648C9380818B6080830895CF93DF93FA
:1003A000CDB7DEB728970FB6F894DEBF0FBECDBF2E
:1003B00029E731E03F932F932DE731E03F932F93CF
:1003C0009E01295F3F4F3F932F93225031093F9366
:1003D0002F93225031093F932F93225031093F939D
:1003E0002F9329E831E03F932F932DE831E03F939D
:1003F0002F9322E031E03F932F9328E731E03F93A2
:100400002F932EE031E03F932F939F938F930E9481
:100410009D1E909178010FB6F894DEBF0FBECDBF40
:10042000911119C029813A81309388012093870165
:100430002B813C8130938601209385012D813E8163
:1004400030938401209383012F813885309382017A
:100450002093810121C09130F9F429813A81232B25
:1004600009F490E09093760191E02B813C81232B5D
:1004700009F490E09093750191E02D813E81232B4A
:1004800009F490E09093740191E02F813885232B3B
:1004900009F490E09093730128960FB6F894DEBFAC
:1004A0000FBECDBFDF91CF910895CF93DF93EC01C5
:1004B00003C021960E94330D88818111FACFDF910C
:1004C000CF9108950F931F93CF93DF93CDB7DEB7EE
:1004D000C659D1090FB6F894DEBF0FBECDBF8091CB
:1004E0007C018F9380917B018F9380917A018F9310
:1004F000809179018F93809180018F9380917F010A
:100500008F9380917E018F9380917D018F93809155
:1005100082018F93809181018F93809184018F93C9
:10052000809183018F93809186018F9380918501C3
:100530008F93809188018F93809187018F93809111
:100540008C018F9380918B018F9380918A018F937F
:10055000809189018F93809190018F9380918F0179
:100560008F9380918E018F9380918D018F9380E383
:1005700091E09F938F931F9286E98F938E010F5F77
:100580001F4F1F930F930E946D1EC8010E945502BA
:100590000E94770D0FB6F894DEBF0FBECDBFCA56CE
:1005A000DF4F0FB6F894DEBF0FBECDBFDF91CF9106
:1005B0001F910F9108954F925F926F927F92AF9229
:1005C000BF92CF92DF92EF92FF920F931F93CF9340
:1005D00055C20E94060D8A3019F08D3009F042C2D2
:1005E000E0919101EE2309F449C2F0E0EE56FE4F8E
:1005F000108282E991E00E94CE01882309F42FC283
:10060000809178018111F1C0C0908D01D0908E0150
:10061000E0908F01F090900120E030E0A901C70147
:10062000B6010E94E312882309F466C06091890133
:1006300070918A0180918B0190918C0120E030E0D3
:10064000A9010E94E312882309F456C083E0809335
:1006500070010E947611A0907D01B0907E01C09043
:100660007F01D0908001609183017091840180E0CE
:1006700090E00E9489132B013C01609187017091E9
:10068000880180E090E00E9489139B01AC01609199
:100690008D0170918E0180918F0190919001830165
:1006A00072010E94B911A0907901B0907A01C090B6
:1006B0007B01D0907C01609181017091820180E08A
:1006C00090E00E9489132B013C016091850170919B
:1006D000860180E090E00E9489139B01AC0160914B
:1006E000890170918A0180918B0190918C01830125
:1006F00072010E94DC1176C020E030E0A901C70140
:10070000B6010E94E312882371F181E080937001A9
:100710000E947611A0907D01B0907E01C0907F0173
:10072000D0908001609183017091840180E090E01D
:100730000E9489132B013C0160918701709188010F
:1007400080E090E00E9489139B01AC0160918D01D3
:1007500070918E0180918F019091900183017201BF
:100760000E94B9113FC06091890170918A01809106
:100770008B0190918C0120E030E0A9010E94E312EE
:10078000882371F182E0809370010E947611A0901D
:100790007901B0907A01C0907B01D0907C0160918A
:1007A00081017091820180E090E00E9489132B0109
:1007B0003C01609185017091860180E090E00E948B
:1007C00089139B01AC016091890170918A0180912C
:1007D0008B0190918C01830172010E94DC1102C097
:1007E00010927001109200013AC1813009F037C1B6
:1007F0002091760130E0A901440F551F440F551F89
:10080000440F551F90917501292F30E0220F331F9F
:10081000220F331F90917401892F90E0880F991F48
:10082000242B822BC0917301C82B09F480C08091C6
:100830000101833009F07BC082E0809301010E94B6
:100840007611809176018823D1F081E08093700148
:100850000E9462020F2EA12CB12CF8ECCF2EF2E4F4
:10086000DF2EF02DE12CF12C06E913E4A80197010D
:1008700060E070E08AEF93E40E94B91155C0809166
:1008800075018823D1F081E0809370010E9462029B
:100890000F2EA12CB12CF8ECCF2EF2E4DF2EF02D90
:1008A000E12CF12C06E913E4A801970160E070E067
:1008B0008AEF93EC0E94B91137C0809174018823AC
:1008C000C1F082E0809370010F2EA12CB12CF0EFCB
:1008D000CF2EF1E4DF2EF02DE12CF12C04EB12E40D
:1008E000A801970160E070E084E392E40E94DC11CB
:1008F0001BC0809173018823B9F082E0809370015E
:100900000F2EA12CB12CF0EFCF2EF1E4DF2EF02D25
:10091000E12CF12C04EB12E4A801970160E070E0F7
:1009200084E392EC0E94DC111092000196C0809149
:100930007701C81709F47DC090910101913009F445
:1009400078C0933009F475C081E0809301010E9462
:100950008E118091770183FF19C081E0809370012F
:100960000F2EA12CB12CF8ECCF2EF2E4DF2EF02DBF
:10097000E12CF12C870120E030E046E953E460E00F
:1009800070E08AE793E40E94B91150C082FF19C059
:1009900081E0809370010F2EA12CB12CF8ECCF2EAA
:1009A000F2E4DF2EF02DE12CF12C870120E030E085
:1009B00046E953E460E070E08AE793EC0E94B911E5
:1009C00035C081FF19C082E0809370010F2EA12CE9
:1009D000B12CF0EFCF2EF1E4DF2EF02DE12CF12C35
:1009E000870120E030E044EB52E460E070E084EB0B
:1009F00091E40E94DC111AC080FF18C082E080934D
:100A000070010F2EA12CB12CF0EFCF2EF1E4DF2ED0
:100A1000F02DE12CF12C870120E030E044EB52E492
:100A200060E070E084EB91EC0E94DC111092000118
:100A300014C0C81312C08091010181110EC08091B1
:100A40000001882351F00E94A2116B017C010E94D9
:100A50009911A70196010E94560CC093770110923C
:100A600091010CC0E0919101EF3340F491E09E0FB1
:100A700090939101F0E0EE56FE4F80830E94240D8A
:100A80008111A7CDCF911F910F91FF90EF90DF9033
:100A9000CF90BF90AF907F906F905F904F900895F0
:100AA0002FEF81EE94E0215080409040E1F700C0AC
:100AB00000000E94ED0C0E9409120E94900B0E94FF
:100AC00042080E9424060E945E0A2FEF81EE94E005
:100AD000215080409040E1F700C000000E94180BB8
:100AE0002FEF81EE94E0215080409040E1F700C06C
:100AF00000000E94310B811104C08EE192E00E943F
:100B0000360F0E94B50178940E9476110E94D40796
:100B100080937101809172018823C1F31092720158
:100B20000E94DB020E94B4080E94001280917101B1
:100B3000811174C08091780181113FC08091700152
:100B4000833081F40E94B211882361F00E94AB11BE
:100B5000882341F081E0809300010E947611109279
:100B60007001D4CF80917001813061F40E94AB118B
:100B7000882341F081E0809300010E947611109259
:100B80007001C4CF80917001823061F40E94B21173
:100B9000882341F081E0809300010E947611109239
:100BA0007001B4CF0E94A2116B017C010E949911C7
:100BB000A70196010E94560CA9CF813009F0A6CF5B
:100BC00080917001813021F40E94AB11811108C025
:100BD00080917001823099F40E94B211882379F0DB
:100BE00081E08093000180910101823019F410921C
:100BF000010105C0813019F483E0809301018091E7
:100C00000101811183CF0E94A2116B017C010E941E
:100C10009911A70196010E94560C78CF0E94DF0C13
:100C200075CF1F920F920FB60F9211248F931092CF
:100C3000BF001092BE0081E0809372018F910F90EF
:100C40000FBE0F901F901895ECE7F0E080E48083D2
:100C50008081807F8083EBE7F0E080818F7D8083DF
:100C600087E880937A0083E780937E0008951F923F
:100C70000F920FB60F9211242F933F938F939F9350
:100C8000AF93BF93EF93FF9339B129B123FB222791
:100C900020F932FB882780F990E0880F991F282BD4
:100CA0008091FC0190E0880F991F880F991FE22F17
:100CB000E82B8E2FEE0F990BAA0BBB0BFC01319783
:100CC000EE30F10558F5EA5AFF4F0C945A1C80910A
:100CD000010290910202A0910302B09104020197D7
:100CE000A109B1098093010290930202A09303022B
:100CF000B093040213C08091010290910202A0916E
:100D00000302B09104020196A11DB11D809301025E
:100D100090930202A0930302B09304022093FC017B
:100D2000FF91EF91BF91AF919F918F913F912F9143
:100D30000F900FBE0F901F9018951F920F920FB635
:100D40000F9211242F933F938F939F93AF93BF9351
:100D5000EF93FF9339B129B123FB222720F932FB0E
:100D6000882780F990E0880F991F282B8091FC013B
:100D700090E0880F991F880F991FE22FE82B8E2F84
:100D8000EE0F990BAA0BBB0BFC013197EE30F1056E
:100D900058F5EC59FF4F0C945A1C80910102909128
:100DA0000202A0910302B09104020197A109B109C6
:100DB0008093010290930202A0930302B093040275
:100DC00013C08091010290910202A0910302B091A0
:100DD00004020196A11DB11D8093010290930202AD
:100DE000A0930302B09304022093FC01FF91EF91C2
:100DF000BF91AF919F918F913F912F910F900FBE17
:100E00000F901F9018951F920F920FB60F921124FA
:100E10002F933F938F939F93AF93BF93EF93FF9342
:100E200033B12CB126FB222720F934FB882780F927
:100E300090E0880F991F282B8091FB0190E0880F8C
:100E4000991F880F991FE22FE82B8E2FEE0F990B19
:100E5000AA0BBB0BFC013197EE30F10558F5EE58AB
:100E6000FF4F0C945A1C8091FD019091FE01A091BE
:100E7000FF01B09100020197A109B1098093FD0122
:100E80009093FE01A093FF01B093000213C08091E4
:100E9000FD019091FE01A091FF01B0910002019629
:100EA000A11DB11D8093FD019093FE01A093FF0150
:100EB000B09300022093FB01FF91EF91BF91AF919E
:100EC0009F918F913F912F910F900FBE0F901F9088
:100ED00018951F920F920FB60F9211242F933F93E4
:100EE0008F939F93AF93BF93EF93FF931F9903C08B
:100EF00021E02093D20133B12CB126FB222720F927
:100F000034FB882780F990E0880F991F282B809167
:100F1000FB0190E0880F991F880F991FE22FE82BA3
:100F20008E2FEE0F990BAA0BBB0BFC013197EE3005
:100F3000F10558F5E058FF4F0C945A1C8091FD01C3
:100F40009091FE01A091FF01B09100020197A109CB
:100F5000B1098093FD019093FE01A093FF01B0932E
:100F6000000213C08091FD019091FE01A091FF014C
:100F7000B09100020196A11DB11D8093FD019093D7
:100F8000FE01A093FF01B09300022093FB01FF91AB
:100F9000EF91BF91AF919F918F913F912F910F90C2
:100FA0000FBE0F901F901895F8948091D2017894FD
:100FB0000895CF93CFB7F89481E05FC010920102FB
:100FC0001092020210920302109204021092F70192
:100FD0001092F8011092F9011092FA011092FD019D
:100FE0001092FE011092FF01109200021092F30184
:100FF0001092F4011092F5011092F6011092E301A3
:101000001092E4011092E5011092E6011092E701BE
:101010001092E8011092E9011092EA011092DB01AE
:101020001092DC011092DD011092DE011092DF01BE
:101030001092E0011092E1011092E2010E9451121F
:101040002093D3013093D4014093D5015093D6011E
:101050006093D7017093D8018093D9019093DA01FE
:1010600081E090E0A0E0B0E0809303019093040160
:10107000A0930501B093060180E081119FCFCFBFFF
:10108000CF9108958AB18B7F8AB98AB1877F8AB957
:101090008BB184608BB98BB188608BB9E9E6F0E0E5
:1010A00080818061808380818F7D80838DB3846027
:1010B0008DBB80818064808380818F7780838DB3B6
:1010C00088608DBB4A9B02C022E001C020E099B13C
:1010D00093FB882780F9822B8093FC018DB18F7B55
:1010E0008DB98EB180648EB984B18F7E84B984B19C
:1010F0008F7784B985B1806185B985B1806885B9FC
:10110000EAE6F0E080818061808380818F7D80834A
:101110008DB380648DBBE8E6F0E0808181608083E0
:10112000EBE6F0E08081806980831C9B02C022E0B6
:1011300001C020E09CB196FB882780F9822B809328
:10114000FB011092FD011092FE011092FF0110921E
:1011500000021092010210920202109203021092F9
:1011600004020E94D90708954F925F926F927F9276
:101170008F929F92AF92BF92CF92DF92EF92FF92A7
:10118000CF93DF93CDB7DEB728970FB6F894DEBFC5
:101190000FBECDBF0E94511229833A834B835C83DB
:1011A0006D837E838F8398878091D3019091D40142
:1011B000A091D501B091D60129813A814B815C8102
:1011C000281B390B4A0B5B0B20930301309304015E
:1011D0004093050150930601232B242B252B61F40A
:1011E00081E090E0A0E0B0E08093030190930401DF
:1011F000A0930501B093060139813093D3014A8150
:101200004093D4015B815093D5018C818093D601AA
:101210002D812093D7013E813093D8014F81409397
:10122000D90158855093DA019FB7F89481E011C035
:101230008090010290900202A0900302B0900402FC
:10124000C090FD01D090FE01E090FF01F0900002FF
:1012500080E08111EDCF9FBF8091F7019091F8015F
:10126000A091F901B091FA01A5019401281B390B55
:101270004A0B5B0BCA01B9012093EF013093F001D7
:101280004093F1015093F2014090F3015090F4012A
:101290006090F5017090F601A701960124193509B7
:1012A0004609570929013A012093EB013093EC01DB
:1012B0004093ED015093EE018092F7019092F80176
:1012C000A092F901B092FA01C092F301D092F40118
:1012D000E092F501F092F6010E948B132DEF3DEAAA
:1012E00040E85CE30E9440146B017C01C301B20141
:1012F0000E948B132DEF3DEA40E85CE30E9440140E
:101300002B013C019B01AC01C701B6010E94771281
:1013100020E030E040E05FE30E9440144B015C01BC
:101320006093E7017093E8018093E9019093EA01EB
:10133000A7019601C301B2010E9476122AEF3EEA8C
:101340004AEE5DE30E9440146B017C016093E3016F
:101350007093E4018093E5019093E601A501940167
:101360006091DF017091E0018091E1019091E201D3
:101370000E9477126093DF017093E0018093E10196
:101380009093E201A70196016091DB017091DC016D
:101390008091DD019091DE010E9477126093DB0164
:1013A0007093DC018093DD019093DE0128960FB6E7
:1013B000F894DEBF0FBECDBFDF91CF91FF90EF90CD
:1013C000DF90CF90BF90AF909F908F907F906F9065
:1013D0005F904F9008956091030170910401809196
:1013E0000501909106010E9489139B01AC0160E008
:1013F00074E284E799E40E94E8129B01AC016091D9
:10140000E7017091E8018091E9019091EA010E9461
:1014100040140895609103017091040180910501C9
:10142000909106010E9489139B01AC0160E074E277
:1014300084E799E40E94E8129B01AC016091E3010A
:101440007091E4018091E5019091E6010E944014C1
:1014500008956091030170910401809105019091BC
:101460000601089594EA9093BC009091BC009923E2
:10147000E4F79091B900987F983011F09031C1F461
:101480008093BB0084E88093BC008091BC008823DB
:10149000E4F78091B900887F883121F0803421F40D
:1014A00091E003C091E001C090E0892F8170089520
:1014B00080E0089584E98093BC000895E9EBF0E0B2
:1014C00080818C7F808388E48093B80084E080935F
:1014D000BC0008950F931F93CF93DF93EB01142F5C
:1014E000880F0E94320A082F811119C01DC0FE0109
:1014F000E90FF11D80818093BB0084E88093BC00DC
:101500008091BC008823E4F78091B900887F8832FD
:1015100021F00E945A0A00E007C09F5F01C090E0DE
:10152000911728F30E945A0A802FDF91CF911F91C3
:101530000F9108950F931F93CF93DF938B01C42FC7
:1015400090E0880F991F81600E94320AD82F811184
:101550002FC033C0492F50E02C2F30E021503109EB
:101560004217530711F484E801C084EC8093BC0057
:101570008091BC008823E4F7421753072CF4809134
:10158000B900887F803541F44217530749F48091B0
:10159000B900887F883521F00E945A0AD0E00DC03A
:1015A000F801E90FF11D8091BB0080839F5F01C0AE
:1015B00090E09C1778F20E945A0A8D2FDF91CF910C
:1015C0001F910F910895CF93DF9300D0CDB7DEB771
:1015D00089836A8342E0BE016F5F7F4F88E20E9489
:1015E0006A0A0F900F90DF91CF910895682F8DE3D5
:1015F0000E94E30A08950F931F93CF93DF931F92E6
:10160000CDB7DEB789838B0141E0BE016F5F7F4FAD
:1016100088E20E946A0A882329F041E0B80188E242
:101620000E949A0A0F90DF91CF911F910F91089518
:1016300080B3806880BB81B38F7781BB8FE39CE9E7
:101640000197F1F700C0000081B3806881BB9FEF74
:101650002CEB8FE1915020408040E1F700C000006A
:1016600008951F93CF93DF931F92CDB7DEB70E94EB
:101670005E0A1982BE016F5F7F4F80E00E94FB0A05
:10168000182F882351F18981803A31F580E00E943A
:10169000F60A2FE788E391E0215080409040E1F77F
:1016A00000C0000060E28FE30E94E30A2FEF8CEBA2
:1016B0009FE1215080409040E1F700C000008CE0A5
:1016C0000E94F60A2FEF89EF90E021508040904071
:1016D000E1F700C0000001C010E0812F0F90DF9102
:1016E000CF911F910895882321F085B1806485B939
:1016F000089585B18F7B85B90895882321F08BB13A
:1017000080688BB908958BB18F778BB90895CF938B
:10171000C82F0E94730B8C2F0E947D0BCF910895D0
:1017200087B1806487B98AB180648AB984B18064E2
:1017300084B984B1806284B98AB180618AB98AB17E
:1017400080688AB988B1806488B98BB180648BB9AC
:1017500085B18F7B85B985B1806285B98BB1806198
:101760008BB98BB18F778BB990E49093900088E020
:1017700080939100909380008093810081E00E948B
:10178000870B0895882321F08BB180648BB908956D
:101790008BB18F7B8BB90895882321F08BB1806149
:1017A0008BB908958BB18F7E8BB908959C01A0ED04
:1017B000B7E00E94601C0E94891323E634E14DE1EA
:1017C00054E40E94E8120E945A139B01AC01012EBE
:1017D0001BE0220F331F441F551F1A95D1F7102D00
:1017E00060E074E284EF90E00E94381CDA01C901E5
:1017F0000197A109B109009721E0A207B10520F0E6
:101800008FEF9FEFA0E0B0E0909399008093980055
:10181000E1E9F0E08081887F80831092950010924A
:10182000940080818560808308959C01A0EDB7E0DD
:101830000E94601C0E94891323E634E14DE154E4C8
:101840000E94E8120E945A139B01AC01012E1BE07A
:10185000220F331F441F551F1A95D1F7102D60E03A
:1018600074E284EF90E00E94381CDA01C90101970C
:10187000A109B1099093890080938800E1E8F0E024
:101880008081887F808310928500109284008081FF
:10189000856080830895CF93DF93EB010E94D60B80
:1018A000CE010E94150CDF91CF9108954F925F9267
:1018B0006F927F928F929F92AF92BF92CF92DF9260
:1018C000EF92FF92CF93DF9300D000D01F92CDB75D
:1018D000DEB72B013C01CA01B90120E030E04AEF3C
:1018E00053E40E9440142BED3FE049E450E40E9491
:1018F000401420E030E044EB53E40E94E8126B0116
:101900007C019B01AC01C301B2010E9476124B0124
:101910005C01A3019201C701B6010E9477126B011D
:101920007C01D501C401BF7789839A83AB83BC83D3
:1019300026013701E89477F891E09D8320E030E0BC
:10194000A901C501B4010E943B1488230CF41D8237
:101950008D810E94C20BA1E0AD8320E030E0A9019F
:10196000C701B6010E94E31288230CF01D828D810D
:101970000E94CC0BC301B2010E945A136B017C017F
:1019800069817A818B819C810E945A13DC01CB0191
:10199000B6010E944B0C0F900F900F900F900F907C
:1019A000DF91CF91FF90EF90DF90CF90BF90AF90FD
:1019B0009F908F907F906F905F904F90089580E000
:1019C0000E94870BE1E8F0E08081887F8083E1E975
:1019D000F0E08081887F8083089581E08093D70044
:1019E00080EA8093D80082E189BD09B400FEFDCF72
:1019F00080E98093D8001092E000109208021092C3
:101A000005028CE08093E200789408959FB7F894E3
:101A100080910802811103C09FBF8FEF089583E07A
:101A20008093E9008091E80085FD03C09FBF8FEFA0
:101A300008958091F1002091E80025FD03C02BE678
:101A40002093E8009FBF08959FB7F8948091080203
:101A5000882331F083E08093E9008091F20001C097
:101A600080E09FBF0895909108029923E1F19FB70C
:101A7000F89424E02093E90020910602222349F003
:101A80002091E80025FD03C09FBF8FEF08951092BD
:101A900006023091E400375E2091E80025FD14C075
:101AA0009FBF9091E400391305C081E08093060246
:101AB0008FEF0895909108029923B9F09FB7F89499
:101AC00024E02093E900E8CF8093F1008091E800C2
:101AD00085FD03C08AE38093E80085E080930702D8
:101AE0009FBF80E008958FEF08958FEF08958FB71F
:101AF000F89490910702992341F094E09093E900C3
:101B00009AE39093E800109207028FBF08951F9206
:101B10000F920FB60F9211248F939F93EF93FF9321
:101B2000E1EEF0E08081108283FF11C01092E900A5
:101B300091E09093EB001092EC0092E19093ED0015
:101B400098E09093F000109208021092050282FF34
:101B500013C080910802882379F0809107028823BE
:101B600059F0815080930702811106C084E0809370
:101B7000E9008AE38093E800FF91EF919F918F91B4
:101B80000F900FBE0F901F9018951F920F920FB6D7
:101B90000F9211242F933F934F935F936F937F93F3
:101BA0008F939F93AF93BF93CF93DF93EF93FF9365
:101BB0001092E9008091E80083FF42C1E1EFF0E07C
:101BC000B081A0812081808190E0982F8827822B8E
:101BD0004081208130E0322F2227B901642B4081DF
:101BE000208130E0322F2227F901E42BAF0122EFD0
:101BF0002093E800A63009F051C0A0E02BE232E0CB
:101C0000A63020F081E28093EB001DC1F901C5915F
:101C1000D4918C179D0719F0295F3F4F1CC0F90123
:101C20003296C591D4916C177D0719F0295F3F4F0B
:101C300012C0F901349685919491F9013696649118
:101C40009A014F3F510519F010F02FEF30E0621765
:101C500020F0622F02C0AF5FD3CF2091E800322F77
:101C60003570D9F322FDEFC0362F613108F030E135
:101C7000232F09C0AC014F5F5F4FFC01849180931B
:101C8000F1002150CA012111F5CF631B2EEF2093E3
:101C9000E8006111E2CF303101F3D5C0A53059F42D
:101CA0002EEF2093E8002091E80020FFFCCF806811
:101CB0008093E300C8C0A93079F5B1112DC080939D
:101CC000080210920502109207028EEF8093E8003E
:101CD00081E024ED32E018C08093E900A9014F5F54
:101CE0005F4FF90194919093EB00992359F0FA0119
:101CF00044914093EC003196E4912D5F3F4FE09387
:101D0000ED0001C09A018F5F853030F3EAEEF0E01C
:101D10008EE18083108297C0A83071F4B03861F4EE
:101D20008091E80080FFFCCF809108028093F10051
:101D30008EEF8093E80087C0A132A9F4B13A99F4FC
:101D40008091E80080FFFCCFE7E0F1E080E005C093
:101D500090819093F1008F5F31968730C8F38EEFBA
:101D60008093E80070C0A032C1F4B132B1F4809128
:101D7000E80082FFFCCFE7E0F1E080E005C0909151
:101D8000F10090838F5F31968730C8F3E8EEF0E082
:101D90008BEF80838EEF808356C0A23261F4B13224
:101DA00051F4809305028091E80080FFFCCF8EEF14
:101DB0008093E80048C0A1111BC08091E80080FF1B
:101DC000FCCFB23861F46093E9008091EB0085FDAF
:101DD00002C080E001C081E01092E90001C080E013
:101DE000E1EFF0E0808310828EEF8093E8002BC05B
:101DF000A13011F0A33021F5B23011F5892B01F596
:101E0000262F2F778FEF820F8430D0F48EEF8093C0
:101E1000E8002093E900A33021F481E28093EB00F5
:101E200012C089E18093EB0081E090E002C0880F4E
:101E3000991F2A95E2F7EAEEF0E08083108203C052
:101E400081E28093EB00FF91EF91DF91CF91BF9101
:101E5000AF919F918F917F916F915F914F913F9142
:101E60002F910F900FBE0F901F9018950F931F93F7
:101E7000CF93FC018F010F5F1F4FC491CC2351F012
:101E8000CA3019F48DE00E94330D8C2F0E94330D5F
:101E9000F801F0CFCF911F910F910895CF92DF926B
:101EA000EF92FF92CF93DF93EC0169817A818B816E
:101EB0009C8129813A814B815C810E9440146B0195
:101EC0007C016F89788D898D9A8D9B01AC010E9470
:101ED00040149B01AC01C701B6010E9476129F77A6
:101EE00020E030E040E05FE30E9440142F85388915
:101EF00049895A890E944014DF91CF91FF90EF9059
:101F0000DF90CF900895FC01F89415821682178215
:101F100010861182128213821482138A148A158AFF
:101F2000168A1082789408952F923F924F925F9272
:101F30006F927F928F929F92AF92BF92CF92DF92D9
:101F4000EF92FF920F931F93CF93DF9300D000D0B7
:101F5000CDB7DEB71C012A013B0109831A832B830D
:101F60003C8320E030E0A901C301B2010E94E312EA
:101F7000882314F41FEF01C011E0F101118720E064
:101F800030E0A901C301B2010E94E312882324F4C6
:101F900077FA709477F8709420E030E040E85FE3DF
:101FA000C301B2010E94E312882324F483E0F1010B
:101FB00080835CC029813A814B815C81C701B60175
:101FC0000E943B14181624F4C980DA80EB80FC8050
:101FD000F1011582168217821086438E548E658E0B
:101FE000768E612F110F770B880B990B0E948B1344
:101FF0002B013C0129813A814B815C815F770E94F2
:102000004014F101638B748B858B968BA70196012D
:102010005F77C301B2010E944014F101678B708F9A
:10202000818F928FE894B7F883869486A586B686CA
:1020300020E030E040E85FE3C501B4010E943B14BA
:1020400088234CF0A501940160E070E080E89FE3F4
:102050000E94E81204C060E070E080E89FE3F101B4
:102060006787708B818B928B81E080830F900F90BC
:102070000F900F90DF91CF911F910F91FF90EF90F4
:10208000DF90CF90BF90AF909F908F907F906F9098
:102090005F904F903F902F9008954F925F926F9274
:1020A0007F928F929F92AF92BF92CF92DF92EF92E8
:1020B000FF920F931F93CF93DF9300D000D000D0F7
:1020C000CDB7DEB7FC012081222309F4F8C09E833E
:1020D0008D830E94290A0E9489132DEB37E346E87D
:1020E00055E30E9440146B017C01ED81FE81638504
:1020F000748585859685A70196010E9440146983A1
:102100007A838B839C83ED81FE81838D948DA58D55
:10211000B68DBC01CD019F77058116812781308561
:10212000A90198015F770E9476124B015C01ED8155
:10213000FE818081813029F5CF010E944E0F9B01E5
:10214000AC01C501B4010E94E3128823D4F482E0FB
:10215000ED81FE8180834788508C618C728C20E0F9
:1021600030E0A901C301B2010E94E312811103C052
:10217000412C512C3201ED81FE81438A548A658ABB
:10218000768AED81FE8161817281838194814388A9
:10219000548865887688A30192010E94E3128823FF
:1021A0001CF5ED81FE812181328143815481698159
:1021B0007A818B819C810E947712ED81FE816183FF
:1021C0007283838394832181328143815481C3014B
:1021D000B2010E94E3128823ACF5ED81FE814182B9
:1021E0005282638274822EC0ED81FE812181328110
:1021F00043815481C301B2010E94E312882314F584
:10220000ED81FE81618172818381948129813A818E
:102210004B815C810E947612ED81FE816183728325
:10222000838394832181328143815481C301B2012C
:102230000E943B14181634F4ED81FE8141825282D3
:1022400063827482ED81FE818285811105C00E94C6
:10225000EB099B01AC0104C00E940A0A9B01AC017E
:10226000ED81FE814580568067807084C701B6018C
:102270000E9440149B01AC01C301B2010E9477127D
:10228000ED81FE81658376838783908780818330AB
:10229000B1F020E030E040E05EE3C501B4010E940F
:1022A000E312882364F483E0ED81FE8180838789D3
:1022B000908DA18DB28D838B948BA58BB68B26963A
:1022C0000FB6F894DEBF0FBECDBFDF91CF911F9147
:1022D0000F91FF90EF90DF90CF90BF90AF909F90C5
:1022E0008F907F906F905F904F9008950E94DF0CC9
:1022F0000E94D90781E192E00E94830F80E392E07F
:102300000E94830F81E00E94870B0895F894FC01DE
:102310001582168217821086789408950E94D90734
:1023200081E192E00E94861180E392E00E94861192
:10233000089560911202709113028091140290919D
:10234000150208956091310270913202809133023A
:102350009091340208959091110281E0933009F038
:1023600080E008959091300281E0933009F080E0A0
:1023700008958F929F92AF92BF92CF92DF92EF9289
:10238000FF920F931F934501560110921B026701A4
:10239000780189019A01AB01BC0181E192E00E94C0
:1023A000940F1F910F91FF90EF90DF90CF90BF900F
:1023B000AF909F908F9008958F929F92AF92BF920F
:1023C000CF92DF92EF92FF920F931F934501560138
:1023D000E1E0E0933A026701780189019A01AB01DB
:1023E000BC0180E392E00E94940F1F910F91FF9037
:1023F000EF90DF90CF90BF90AF909F908F90089517
:1024000081E192E00E944D1080E392E00E944D1025
:102410000895F89414BC82E085BD81E080936E003D
:10242000789408951F920F920FB60F9211242F9354
:102430003F934F935F936F937F938F939F93AF934C
:102440002091090230910A0240910B0250910C0236
:1024500060910D0270910E0280910F029091100216
:10246000A1E00E94DD1C2093090230930A024093F0
:102470000B0250930C0260930D0270930E02809336
:102480000F0290931002AF919F918F917F916F9166
:102490005F914F913F912F910F900FBE0F901F9022
:1024A00018950F93FFB7F8942091090230910A0212
:1024B00040910B0250910C0260910D0270910E023E
:1024C00080910F0290911002E6B5A89B05C0EF3FE6
:1024D00019F0A1E00E94DD1CFFBF08E00E94A61CCD
:1024E0002E2B01E00E94C11C0F9108955058BB276C
:1024F000AA270E948E120C9401140E94F31338F044
:102500000E94FA1320F039F49F3F19F426F40C943A
:10251000F0130EF4E095E7FB0C94EA13E92F0E9408
:10252000121458F3BA17620773078407950720F04F
:1025300079F4A6F50C9434140EF4E0950B2EBA2F12
:10254000A02D0B01B90190010C01CA01A0011124B9
:10255000FF27591B99F0593F50F4503E68F11A1665
:10256000F040A22F232F342F4427585FF3CF4695F6
:1025700037952795A795F0405395C9F77EF41F1618
:10258000BA0B620B730B840BBAF09150A1F0FF0FE2
:10259000BB1F661F771F881FC2F70EC0BA0F621FCE
:1025A000731F841F48F4879577956795B795F795BE
:1025B0009E3F08F0B0CF9395880F08F09927EE0F53
:1025C0009795879508950E94C61308F481E00895B1
:1025D0000E94FC120C9401140E94FA1358F00E94FD
:1025E000F31340F029F45F3F29F00C94EA135111E2
:1025F0000C9435140C94F0130E94121468F3992370
:10260000B1F3552391F3951B550BBB27AA276217EE
:102610007307840738F09F5F5F4F220F331F441FFB
:10262000AA1FA9F335D00E2E3AF0E0E832D091502F
:102630005040E695001CCAF72BD0FE2F29D0660F1C
:10264000771F881FBB1F261737074807AB07B0E85F
:1026500009F0BB0B802DBF01FF2793585F4F3AF065
:102660009E3F510578F00C94EA130C9435145F3FAB
:10267000E4F3983ED4F3869577956795B795F795EB
:102680009F5FC9F7880F911D9695879597F90895D3
:10269000E1E0660F771F881FBB1F6217730784076F
:1026A000BA0720F0621B730B840BBA0BEE1F88F77E
:1026B000E09508950E941A1488F09F5798F0B92F5A
:1026C0009927B751B0F0E1F0660F771F881F991F67
:1026D0001AF0BA95C9F714C0B13091F00E943414C1
:1026E000B1E008950C943414672F782F8827B85FD1
:1026F00039F0B93FCCF3869577956795B395D9F7BF
:102700003EF490958095709561957F4F8F4F9F4FC8
:102710000895E89409C097FB3EF4909580957095D4
:1027200061957F4F8F4F9F4F9923A9F0F92F96E91D
:10273000BB279395F695879577956795B795F11192
:10274000F8CFFAF4BB0F11F460FF1BC06F5F7F4F2F
:102750008F4F9F4F16C0882311F096E911C0772341
:1027600021F09EE8872F762F05C0662371F096E84A
:10277000862F70E060E02AF09A95660F771F881F19
:10278000DAF7880F9695879597F90895990F0008BD
:10279000550FAA0BE0E8FEEF16161706E807F90733
:1027A000C0F012161306E407F50798F0621B730BCE
:1027B000840B950B39F40A2661F0232B242B252B4F
:1027C00021F408950A2609F4A140A6958FEF811DF2
:1027D000811D089597F99F6780E870E060E0089593
:1027E0009FEF80EC089500240A9416161706180629
:1027F0000906089500240A94121613061406050605
:102800000895092E0394000C11F4882352F0BB0F95
:1028100040F4BF2B11F460FF04C06F5F7F4F8F4FF8
:102820009F4F089557FD9058440F551F59F05F3F33
:1028300071F04795880F97FB991F61F09F3F79F0E2
:1028400087950895121613061406551FF2CF469564
:10285000F1DF08C0161617061806991FF1CF8695E6
:102860007105610508940895E894BB2766277727CA
:10287000CB0197F908950E94C61308F48FEF0895CD
:102880000E9453140C9401140E94F31338F00E9418
:10289000FA1320F0952311F00C94EA130C94F01322
:1028A00011240C9435140E94121470F3959FC1F3F7
:1028B000950F50E0551F629FF001729FBB27F00DEE
:1028C000B11D639FAA27F00DB11DAA1F649F662743
:1028D000B00DA11D661F829F2227B00DA11D621F92
:1028E000739FB00DA11D621F839FA00D611D221F4C
:1028F000749F3327A00D611D231F849F600D211D30
:10290000822F762F6A2F11249F5750409AF0F1F0B2
:1029100088234AF0EE0FFF1FBB1F661F771F881F1B
:1029200091505040A9F79E3F510580F00C94EA1356
:102930000C9435145F3FE4F3983ED4F38695779575
:102940006795B795F795E7959F5FC1F7FE2B880FC1
:10295000911D9695879597F90895A0E1B0E0E3EB76
:10296000F4E10C946F1C7C011B016A01FC011782CD
:102970001682838181FF44C39E012F5F3F4F39013F
:10298000F7019381F10193FD859193FF81911F01DF
:10299000882309F431C3853239F493FD859193FF7F
:1029A00081911F01853239F4B70190E00E94311EF8
:1029B00056016501E5CF10E0512C912CFFE1F9158E
:1029C000D8F08B3279F038F4803279F08332A1F488
:1029D000F92DF0612EC08D3261F0803369F4292D1C
:1029E00021602DC0392D3260932E892D8460982E60
:1029F0002AC0E92DE86015C097FC2DC020ED280FF6
:102A00002A3088F496FE06C03AE0139F200D112468
:102A1000122F19C08AE0589E200D1124522EE92D44
:102A2000E0629E2E10C08E3231F496FCE5C2F92D84
:102A3000F0649F2E08C08C3621F4292D2068922E38
:102A400002C0883641F4F10193FD859193FF819195
:102A50001F018111B3CF9BEB980F933020F4992D78
:102A60009061805E07C09BE9980F933008F066C1C3
:102A7000992D9F7E96FF16E09F73992E853619F447
:102A80009064992E08C0863621F4392F3068932E31
:102A900002C01111115097FE07C01C3350F444249A
:102AA0004394410E27E00BC0183038F027E017E0C0
:102AB00005C027E09CE3492E02C0212F412C56017E
:102AC00084E0A80EB11CF60160817181828193813E
:102AD000042DA3010E94E91C6C01F981FC87F0FF21
:102AE00002C0F3FF06C091FC06C092FE06C000E2E1
:102AF00005C00DE203C00BE201C000E08C858C70C4
:102B000019F001115AC29BC297FE10C04C0CFC85F3
:102B1000F4FF04C08A81813309F44A94141474F5D3
:102B200028E0241578F588E0482E2CC096FC2AC0B1
:102B3000812F90E08C159D059CF03CEFC3163FEF74
:102B4000D30674F0892D8068982E0AC0E2E0F0E088
:102B5000EC0FFD1FE10FF11D8081803319F411503E
:102B60001111F4CF97FE0EC044244394410E812FDF
:102B700090E0C816D9062CF41C1904C044244394D0
:102B800001C010E097FE06C01C141D0434F4C601F9
:102B9000019605C085E090E002C081E090E001115F
:102BA0000196112331F0212F30E02F5F3F4F820F2C
:102BB000931F252D30E08217930714F4581A01C093
:102BC000512C892D897049F4552039F0B70180E2E4
:102BD00090E00E94311E5A94F7CF002329F0B701EC
:102BE000802F90E00E94311E93FC09C0552039F0DF
:102BF000B70180E390E00E94311E5A94F7CF97FE10
:102C00004CC04601D7FE02C0812C912CC601881908
:102C10009909F301E80FF91FFE87ED879601241942
:102C20003109388B2F87012F10E01195019511097B
:102C30003FEF8316930629F4B7018EE290E00E94DD
:102C4000311EC814D9044CF08F85988988159905D0
:102C500024F4ED85FE85818101C080E3F1E08F1AC7
:102C600091082D853E852F5F3F4F3E872D8780162B
:102C700091062CF0B70190E00E94311ED9CFC81404
:102C8000D90441F49A81963320F4953319F43C85A4
:102C900034FF81E3B70190E04EC08A81813319F09F
:102CA0009C859F7E9C87B70190E00E94311E111188
:102CB00005C094FC18C085E690E017C0B7018EE20D
:102CC00090E00E94311E1E5F82E001E0080FF301D8
:102CD000E80FF11D8081B70190E00E94311E802F26
:102CE0000113F3CFE6CF85E490E0B7010E94311ED7
:102CF000D7FC06C0C114D10441F4EC85E4FF05C043
:102D0000D194C194D1088DE201C08BE2B70190E06B
:102D10000E94311E80E32AE0C216D1042CF08F5F9E
:102D2000FAE0CF1AD108F7CFB70190E00E94311E28
:102D3000B701C601C0960E94311E54C1833631F0DE
:102D4000833779F0833509F056C020C0560132E050
:102D5000A30EB11CF6018081898301E010E06301BC
:102D600012C05601F2E0AF0EB11CF601C080D18056
:102D700096FE03C0612F70E002C06FEF7FEFC601C7
:102D80000E94E81D8C01F92DFF7714C0560122E046
:102D9000A20EB11CF601C080D18096FE03C0612F47
:102DA00070E002C06FEF7FEFC6010E94DD1D8C0155
:102DB000F92DF0689F2EF3FD1AC0852D90E00817BD
:102DC0001907A8F4B70180E290E00E94311E5A94DE
:102DD000F4CFF60197FC859197FE81916F01B701C1
:102DE00090E00E94311E51105A94015011090115B2
:102DF000110579F7F7C0843611F0893661F556016F
:102E000097FE09C024E0A20EB11CF6016081718119
:102E1000828193810AC0F2E0AF0EB11CF60160819D
:102E20007181072E000C880B990BF92DFF769F2ED0
:102E300097FF09C090958095709561957F4F8F4F52
:102E40009F4FF0689F2E2AE030E0A3010E94CF1E22
:102E5000C82EC6183FC0092D853721F40F7E2AE001
:102E600030E01DC0097F8F3691F018F4883559F095
:102E7000C3C0803719F0883711F0BEC0006104FF6D
:102E800009C0046007C094FE08C0066006C028E0C0
:102E900030E005C020E130E002C020E132E0560120
:102EA00007FF09C084E0A80EB11CF60160817181A2
:102EB0008281938108C0F2E0AF0EB11CF6016081FF
:102EC000718180E090E0A3010E94CF1EC82EC61839
:102ED0000F77902E96FE0BC0092D0E7FC11650F471
:102EE00094FE0AC092FC08C0092D0E7E05C0DC2CA1
:102EF000092D03C0DC2C01C0D12E04FF0DC0FE0142
:102F0000EC0DF11D8081803311F4097E09C002FFB0
:102F100006C0D394D39404C0802F867809F0D3944C
:102F200003FD11C000FF06C01C2DD51480F4150D43
:102F30001D190DC0D51458F4B70180E290E00E942D
:102F4000311ED394F7CFD51410F45D1801C0512C65
:102F500004FF10C0B70180E390E00E94311E02FF21
:102F600017C001FD03C088E790E002C088E590E04B
:102F7000B7010CC0802F867859F001FF02C08BE2A8
:102F800001C080E207FD8DE2B70190E00E94311E92
:102F9000C11638F4B70180E390E00E94311E115051
:102FA000F7CFCA94F301EC0DF11D8081B70190E0D9
:102FB0000E94311EC110F5CF15C0F4E0F51560F583
:102FC00084E0581A93FE1FC0011127C02C8523FFEF
:102FD0002AC00CE111E0392D3071932EF801849153
:102FE000811124C0552009F4E4CCB70180E290E0BF
:102FF0000E94311E5A94F6CFF7018681978126C030
:103000008FEF9FEF23C0B70180E290E00E94311E56
:103010005A945110F8CFD8CF512CB701802F90E09F
:103020000E94311ED3CF00E211E0D5CF9110805223
:10303000B70190E00E94311E0F5F1F4FCFCF23E0FA
:10304000251510F483E0BDCF512CC0CF6096E2E18E
:103050000C948B1C20FD09C0FC0123FD05C022FF40
:1030600002C07383628351834083089544FD17C077
:1030700046FD17C0AB01BC01DA01FB01AA0FBB1F63
:10308000EE1FFF1F1094D1F74A0F5B1F6E1F7F1FAB
:10309000CB01BA01660F771F881F991F09C033E063
:1030A00001C034E0660F771F881F991F3150D1F798
:1030B000620F711D811D911D08950F931F93CF9372
:1030C000DF938C01C8010E94F31DEC0197FD08C03D
:1030D0000E94C11D892BB1F7B801CE010E94B61E16
:1030E000CE01DF91CF911F910F910895A0E0B0E044
:1030F000ECE7F8E10C94751C7C018B016A01D22F7E
:103100000E94F31D9C0133272B32310521F02D3213
:10311000310559F4D0680150110911F480E06BC0F9
:10312000C7010E94F31D97FDF9CFCD2FCD7F2D2F25
:10313000207319F5803309F5580181E0A81AB10808
:1031400009F445C0C7010E94F31D97FD40C09C01D2
:103150002F7D33272835310551F4C26402501109FF
:10316000B1F1C7010E94F31D97FF07C030C0D6FF21
:1031700002C0C26001C0C2618501812C912C540142
:1031800020ED280F283080F0C4FF04C0B7010E9452
:10319000B61E1AC02A3040F0C6FFF8CF2F7D3FEE92
:1031A000320F363098F727504C2FC501B4010E94DA
:1031B00036184B015C01C2600150110959F0C7017A
:1031C0000E94F31D97FFDCCFC1FD04C0A7CF812C67
:1031D000912C5401C7FF08C0B094A094909480949F
:1031E000811C911CA11CB11C2C2FB501A401C6018E
:1031F0000E942A1881E0CDB7DEB7ECE00C94911C58
:10320000A0E2B0E0E6E0F9E10C94711C5C014B0136
:103210007A018E010F5F1F4F680180E2F801119261
:103220008A95E9F7F501538040E050E0612C90E089
:10323000712CA1E0B0E0F90153FC859153FE81911E
:103240008F01482E9F01811103C080E090E096C05D
:103250008E3519F44115510551F1672D70E0641751
:1032600075073CF48D3561F18D3219F4992311F114
:1032700003C0992309F46DC0842D869586958695A3
:10328000F601E80FF11D842D87708D0102C0000F3B
:10329000111F8A95E2F7C8019081892B80836414FD
:1032A00059F0461410F44394E7CF4A94E5CF7724BD
:1032B000739403C091E001C090E04F5F5F4FBBCFBC
:1032C000992319F08E8180628E83711003C0772458
:1032D000739419C0F6019E012F5D3F4F8081809548
:1032E00081932E173F07D1F7F2CFE114F10431F0AB
:1032F000F7018083B7016F5F7F4F7B0171E0871A11
:103300009108712CF9F0C5010E94F31D97FD18C0BA
:10331000FC01FF2723E0F595E7952A95E1F7EC0DF1
:10332000FD1D208130E0AC014770552702C0359566
:1033300027954A95E2F720FDD8CFB5010E94B61E29
:10334000711083CFE114F10411F0F7011082C8016C
:1033500015C0682F669566956695F601E60FF11D16
:10336000682F67708D0102C0000F111F6A95E2F788
:10337000B8017081672B6083682E9FCFA096E0E133
:103380000C948D1C2F923F924F925F926F927F927E
:103390009F92AF92BF92CF92DF92EF92FF920F93E4
:1033A0001F93CF93DF936C018B011A010E94F31DD1
:1033B000EC0199278B32910529F08D9781F430E843
:1033C000932E01C0912C0150110911F480E00CC121
:1033D000C6010E94F31DEC0197FF02C0F7CF912CAC
:1033E000CE010E94CA1D8936910531F08E369105B5
:1033F00099F5C0EFD2E002C0C3EFD2E02196FE0102
:103400003197B490BB20C9F00150110991F0C60169
:103410000E94F31D7C0197FD0CC00E94CA1D9927D4
:10342000EB2DF0E08E179F0749F3B601C7010E940C
:10343000B61EC65FD24051F603C0C35FD24029F02A
:1034400080E090E0A0E8BFE704C080E090E0A0EC5E
:10345000BFE7BC01CD01B8C0412C512C3201E12C99
:10346000F12C2C2F20532A3010F5E92DE260BE2ECE
:10347000892D887092FE06C0811120C0FFEFEF1ADF
:10348000FF0A1CC0882319F081E0E81AF10840E225
:10349000C301B2010E9436182B013C0168397949F9
:1034A0008949994158F0F92DF660BF2E07C02E3F8B
:1034B00089F493FC0FC0292D2860B22E0150110908
:1034C00041F0C6010E94F31DEC019B2C97FFC9CF70
:1034D00001C09B2C91FE7ACFCE018F7D9927853438
:1034E000910509F042C0580181E0A81AB10809F419
:1034F0006DCFC6010E94F31DEC0197FD67CF9927A0
:103500008B32910529F08D9769F4E92DE0619E2EAB
:103510005801F2E0AF1AB10809F458CFC6010E9471
:10352000F31DEC01CE01C0970A9708F04FCF85013B
:10353000A12CB12CB501BB0C880B990B2C2F20535F
:1035400040E20E9436185B010150110939F0C601B2
:103550000E94F31DEC01C0970A9760F394FE03C02C
:10356000B194A194B108EA0CFB1C012B31F0D7FDFA
:1035700004C0B601CE010E94B61EC301B2010E9472
:103580008913F7FE06C0F194E194F108CFE0D3E08F
:1035900002C0C7E2D3E06E0128E1C21AD10800E2FE
:1035A00010E0E016F10650F0FE01259135914591AD
:1035B00054910E944014E01AF10AF3CF2497169513
:1035C0000795CC16DD0669F797FE05C0DC01CB0137
:1035D000B058BC01CD012114310429F0F101608300
:1035E00071838283938381E0DF91CF911F910F914B
:1035F000FF90EF90DF90CF90BF90AF909F907F9023
:103600006F905F904F903F902F900895A0E0B0E0B2
:10361000ECE0FBE10C94731C5C01EB014A01FC0142
:1036200017821682612CF5010381FE0103FD85914D
:1036300003FF8191182FEF01882309F40FC190E057
:103640000E94C11D892B21F0C5010E945D18EBCF9E
:10365000153241F4FE0103FD159103FF1191EF01B5
:10366000153281F4C5010E94F31D97FDF5C0412F6D
:1036700050E09C01332724173507A9F2B5010E94B9
:10368000B61EECC01A3241F403FD159103FF1191EF
:10369000EF017724739401C0712CE12CF12C20ED03
:1036A000210F2A3088F4F72DF2607F2EB70180E0D9
:1036B00090E040E20E9436187B01FE0103FD159167
:1036C00003FF1191EF01EBCF71FE04C0E114F1048F
:1036D00021F4C4C0EE24EA94FE2C183619F01C36EE
:1036E00061F014C0FE0103FD159103FF1191EF017C
:1036F000183661F4872D8860782E972D9460792E86
:10370000FE0103FD159103FF1191EF01112309F44F
:10371000A5C0612F70E08EED92E00E94D21D892B32
:1037200009F49CC070FC07C0F401C080D180C401C2
:1037300002964C0102C0C12CD12C1E3651F4F50169
:103740004681578160E070E0272DC6010E942A184B
:103750006ACF1336B9F471FC03C0EE24E394F12C64
:10376000C5010E94F31D97FD77C0C114D10429F053
:10377000F6018083C60101966C0191E0E91AF10817
:1037800079F766C01B3559F49E01A601B701C50142
:103790000E940019EC01892B09F05AC054C0C501E0
:1037A0000E945D1897FD58C01F36E1F140F41436B1
:1037B000A9F11936D1F1183509F03EC02BC01337E5
:1037C000A9F018F4103731F137C0153739F118372F
:1037D00009F132C0C114D10429F0F6010083C601F9
:1037E00001966C0191E0E91AF10871F0C5010E949F
:1037F000F31D8C0197FD08C00E94C11D892B51F358
:10380000B501C8010E94B61EC114D10409F1F60128
:1038100010821EC0F72DF0647F2E07C0872D8062B6
:10382000782E03C0972D9061792E272DA601B70120
:10383000C5010E94761805C0A601B701C5010E9406
:10384000C219811105C0F5018381807329F406C076
:1038500070FCE9CE6394E7CE662019F0862D90E0E7
:1038600002C08FEF9FEFCDB7DEB7EEE00C948F1C58
:10387000A1E21A2EAA1BBB1BFD010DC0AA1FBB1F74
:10388000EE1FFF1FA217B307E407F50720F0A21BE6
:10389000B30BE40BF50B661F771F881F991F1A9453
:1038A00069F760957095809590959B01AC01BD017D
:1038B000CF010895EE0FFF1F0590F491E02D0994BC
:1038C000A29FB001B39FC001A39F700D811D112461
:1038D000911DB29F700D811D1124911D08952F928D
:1038E0003F924F925F926F927F928F929F92AF9290
:1038F000BF92CF92DF92EF92FF920F931F93CF93DD
:10390000DF93CDB7DEB7CA1BDB0B0FB6F894DEBF73
:103910000FBECDBF09942A88398848885F846E8499
:103920007D848C849B84AA84B984C884DF80EE80E3
:10393000FD800C811B81AA81B981CE0FD11D0FB6EC
:10394000F894DEBF0FBECDBFED0108950F93083090
:1039500090F0982F872F762F652F542F432F322FDB
:1039600022270850F4CF220F331F441F551F661F14
:10397000771F881F991F0A95B2F70F91089597FB3B
:1039800010F8169400080F93083098F00850232F71
:10399000342F452F562F672F782F892F902DF4CF56
:1039A000059497958795779567955795479537959A
:1039B00027950A95AAF70F9108950024A7FD009472
:1039C0002A0F301D401D501D601D701D801D901D53
:1039D0000895283008F027E03327DA01990F311DC8
:1039E00087FD916000966105710539F432602E5FA4
:1039F0003D9330E32A95E1F708959F3F30F08038FA
:103A00007105610509F03C5F3C5F3D93913008F022
:103A10008068911DDF93CF931F930F93FF92EF92D6
:103A2000192F987F9695E92F96959695E90FFF2780
:103A3000E258FE4F99273327EE24FF24A701E70120
:103A400005900894079428F4360FE71EF81E491FC6
:103A5000511D660F771F881F991F0694A1F70590C7
:103A6000079428F4E70EF81E491F561FC11D770F53
:103A7000881F991F661F0694A1F70590079428F4E4
:103A8000F80E491F561FC71FD11D880F991F661FAB
:103A9000771F0694A1F70590079420F4490F561F4D
:103AA000C71FD81F990F661F771F881F0694A9F795
:103AB00084911095177041F0D695C7955795479505
:103AC000F794E7941A95C1F7E4E2F1E06894159051
:103AD000159135916591959105907FE27395E11867
:103AE000F10A430B560BC90BD009C0F7E10CF11ECC
:103AF000431F561FC91FD01D7EF4703311F48A95E1
:103B0000E6CFE894015030F0080F0AF400270217BE
:103B100008F4202F2395022F7A3328F079E37D9340
:103B20002A95E9F710C07D932A9589F60694979512
:103B30006795379517951794E118F10A430B560BC3
:103B4000C90BD00998F023957E9173957A3308F0CC
:103B500070E37C932013B8F77E9170617D9330F011
:103B6000839571E37D9370E32A95E1F71124EF903B
:103B7000FF900F911F91CF91DF91992787FD90952D
:103B8000089591110C942D1F803219F089508550A1
:103B9000C8F708959111089581548A5108F4805E00
:103BA000855A0895FC010590061621F00020D9F7EA
:103BB000C00108953197CF010895FC01059061502F
:103BC00070400110D8F7809590958E0F9F1F089533
:103BD000FC016150704001900110D8F780959095DC
:103BE0008E0F9F1F0895CF93DF93EC012B8120FF51
:103BF00033C026FF0AC02F7B2B838E819F810196C5
:103C00009F838E838A8190E029C022FF0FC0E881C4
:103C1000F9818081082E000C990B009719F420621D
:103C20002B831AC03196F983E8830EC0EA85FB85A1
:103C3000099597FF09C02B81019611F080E201C020
:103C400080E1822B8B8308C02E813F812F5F3F4F05
:103C50003F832E83992702C08FEF9FEFDF91CF9193
:103C600008950F931F93CF93DF93FB01238121FDD1
:103C700003C08FEF9FEF2CC022FF16C046815781F3
:103C8000248135814217530744F4A081B1819D01FD
:103C90002F5F3F4F318320838C93268137812F5FA5
:103CA0003F4F3783268314C08B01EC01FB01008456
:103CB000F185E02D0995892BE1F6D80116968D91B5
:103CC0009C911797019617969C938E931697CE0109
:103CD000DF91CF911F910F910895AEE0B0E0E3E73F
:103CE000FEE10C947D1C0D891E898F89988D26E03C
:103CF0002C831A83098397FF02C080E090E8019724
:103D00009E838D83AE01455E5F4F698D7A8DCE01B6
:103D100001960E94AD144D815E8157FD0AC02F812E
:103D20003885421753070CF49A01F801E20FF31F8C
:103D300010822E96E4E00C94991CAEE0B0E0E3EA29
:103D4000FEE10C947F1C85E08C838B899C899A838F
:103D50008983AE01495E5F4F6D897E89CE010196F0
:103D60000E94061B2E96E2E00C949B1CFB01238113
:103D700020FF12C026FD10C08F3F3FEF930761F078
:103D800082832F7D2064238326813781215031094E
:103D900037832683992708958FEF9FEF0895FA01BF
:103DA000AA27283051F1203181F1E8946F936E7F7A
:103DB0006E5F7F4F8F4F9F4FAF4FB1E03ED0B4E06B
:103DC0003CD0670F781F891F9A1FA11D680F791FAC
:103DD0008A1F911DA11D6A0F711D811D911DA11DBD
:103DE00020D009F468943F912AE0269F11243019CD
:103DF000305D3193DEF6CF010895462F4770405D68
:103E00004193B3E00FD0C9F7F6CF462F4F70405D16
:103E10004A3318F0495D31FD4052419302D0A9F771
:103E2000EACFB4E0A6959795879577956795BA956B
:103E3000C9F700976105710508959B01AC010A2E31
:103E400006945795479537952795BA95C9F7620F08
:103E5000731F841F951FA01D089599278827089513
:043E6000F894FFCF04
:103E64000103020100000000E100000000082568D1
:103E740068752C256868752C25662C25662C257597
:103E84002C25752C25752C25752C25662C2566006E
:103E9400434D4420643D256720613D256720766DB0
:103EA40061783D257520776D61783D2575207665AF
:103EB4006E643D25752077656E643D2575206163CC
:103EC400633D256720616163633D25670D0A00003A
:00000001FF
